:020000040800F2
:1000000000000120618E0008E55900082D5A000803
:100010004D5A0008555A00085D5A000800000000BB
:10002000000000000000000000000000655A000809
:10003000715A0008000000007D5A0008895A000823
:10004000A58E0008A58E0008A58E0008A58E0008C4
:10005000A58E0008A58E0008B55A0008A58E0008D8
:10006000A58E0008C95A0008A58E0008A58E0008B4
:10007000A58E0008A58E0008A58E0008A58E000894
:10008000A58E0008A58E0008A58E0008A58E000884
:10009000A58E0008A58E0008A58E0008DD5A000870
:1000A000A58E0008A58E0008A58E0008A58E000864
:1000B000A58E0008A58E0008A58E0008A58E000854
:1000C000A58E0008A58E0008A58E0008A58E000844
:1000D000A58E0008A58E0008A58E0008A58E000834
:1000E000A55A0008A58E0008A58E0008A58E000858
:1000F000A58E000800000000A58E0008A58E00084F
:10010000A58E0008A58E0008A58E0008A58E000803
:10011000A58E0008A58E0008A58E0008A58E0008F3
:10012000A58E000800000000000000000000000094
:0C01300000000000000000005FF808F173
:1001400010B5054C237833B9044B13B10448AFF311
:1001500000800123237010BDF80A00200000000079
:10016000FCED0008084B10B51BB108490848AFF377
:1001700000800848036803B910BD074B002BFBD073
:10018000BDE81040184700BF00000000FC0A002036
:10019000FCED0008F80A00200000000081F000419A
:1001A00002E000BF83F0004330B54FEA41044FEA5C
:1001B000430594EA050F08BF90EA020F1FBF54EAF7
:1001C000000C55EA020C7FEA645C7FEA655C00F093
:1001D000E2804FEA5454D4EB5555B8BF6D420CDD64
:1001E0002C4480EA020281EA030382EA000083EAE7
:1001F000010180EA020281EA0303362D88BF30BD87
:1002000011F0004F4FEA01314FF4801C4CEA1131DC
:1002100002D0404261EB410113F0004F4FEA03333B
:100220004CEA133302D0524263EB430394EA050FC6
:1002300000F0A780A4F10104D5F1200E0DDB02FA35
:100240000EFC22FA05F2801841F1000103FA0EF2C9
:10025000801843FA05F359410EE0A5F120050EF18F
:10026000200E012A03FA0EFC28BF4CF0020C43FAC0
:1002700005F3C01851EBE37101F0004507D54FF0CD
:10028000000EDCF1000C7EEB00006EEB0101B1F51D
:10029000801F1BD3B1F5001F0CD349085FEA300063
:1002A0004FEA3C0C04F101044FEA445212F5800F6E
:1002B00080F09A80BCF1004F08BF5FEA500C50F10B
:1002C000000041EB045141EA050130BD5FEA4C0CEE
:1002D000404141EB010111F4801FA4F10104E9D177
:1002E00091F0000F04BF01460020B1FA81F308BF6E
:1002F0002033A3F10B03B3F120020CDA0C3208DD3A
:1003000002F1140CC2F10C0201FA0CF021FA02F114
:100310000CE002F11402D8BFC2F1200C01FA02F184
:1003200020FA0CFCDCBF41EA0C019040E41AA2BFA9
:1003300001EB0451294330BD6FEA04041F3C1CDA71
:100340000C340EDC04F11404C4F1200220FA04F091
:1003500001FA02F340EA030021FA04F345EA03013B
:1003600030BDC4F10C04C4F1200220FA02F001FAFD
:1003700004F340EA0300294630BD21FA04F029467F
:1003800030BD94F0000F83F4801306BF81F4801118
:100390000134013D4EE77FEA645C18BF7FEA655C8B
:1003A00029D094EA050F08BF90EA020F05D054EA5D
:1003B000000C04BF1946104630BD91EA030F1EBF62
:1003C0000021002030BD5FEA545C05D14000494166
:1003D00028BF41F0004130BD14F580043CBF01F559
:1003E000801130BD01F0004545F0FE4141F470013F
:1003F0004FF0000030BD7FEA645C1ABF194610461A
:100400007FEA655C1CBF0B46024650EA013406BF1A
:1004100052EA033591EA030F41F4002130BD00BFD9
:1004200090F0000F04BF0021704730B54FF4806496
:1004300004F132044FF000054FF0000150E700BF17
:1004400090F0000F04BF0021704730B54FF4806476
:1004500004F1320410F0004548BF40424FF0000163
:100460003EE700BF42004FEAE2014FEA31014FEAA6
:1004700002701FBF12F07F4393F07F4F81F06051F5
:10048000704792F0000F14BF93F07F4F704730B564
:100490004FF4607401F0004521F0004120E700BFF7
:1004A00050EA010208BF704730B54FF000050AE07E
:1004B00050EA010208BF704730B511F0004502D57F
:1004C000404261EB41014FF4806404F132045FEA81
:1004D000915C3FF4DCAE4FF003025FEADC0C18BF26
:1004E00003325FEADC0C18BF033202EBDC02C2F11C
:1004F000200300FA03FC20FA02F001FA03FE40EAAE
:100500000E0021FA02F11444C1E600BF70B54FF0AD
:10051000FF0C4CF4E06C1CEA11541DBF1CEA13558F
:1005200094EA0C0F95EA0C0F00F0DEF82C4481EAF7
:10053000030621EA4C5123EA4C5350EA013518BF17
:1005400052EA033541F4801143F4801338D0A0FB04
:1005500002CE4FF00005E1FB02E506F00042E0FBB1
:1005600003E54FF00006E1FB03569CF0000F18BFB7
:100570004EF0010EA4F1FF04B6F5007F64F540745F
:1005800004D25FEA4E0E6D4146EB060642EAC621F2
:1005900041EA55514FEAC52040EA5E504FEACE2E5F
:1005A000B4F1FD0C88BFBCF5E06F1ED8BEF1004F62
:1005B00008BF5FEA500E50F1000041EB045170BDDE
:1005C00006F0004646EA010140EA020081EA030122
:1005D000B4EB5C04C2BFD4EB0C0541EA045170BD1E
:1005E00041F480114FF0000E013C00F3AB8014F198
:1005F000360FDEBF002001F0004170BDC4F10004E1
:10060000203C35DA0C341BDC04F11404C4F1200561
:1006100000FA05F320FA04F001FA05F240EA0200BC
:1006200001F0004221F0004110EBD37021FA04F6F2
:1006300042EB06015EEA430E08BF20EAD37070BDAC
:10064000C4F10C04C4F1200500FA04F320FA05F00B
:1006500001FA04F240EA020001F0004110EBD3700D
:1006600041F100015EEA430E08BF20EAD37070BD7D
:10067000C4F1200500FA05F24EEA020E20FA04F356
:1006800001FA05F243EA020321FA04F001F0004105
:1006900021FA04F220EA020000EBD3705EEA430E76
:1006A00008BF20EAD37070BD94F0000F0FD101F0A5
:1006B0000046400041EB010111F4801F08BF013CDE
:1006C000F7D041EA060195F0000F18BF704703F01C
:1006D0000046520043EB030313F4801F08BF013DA3
:1006E000F7D043EA0603704794EA0C0F0CEA13555F
:1006F00018BF95EA0C0F0CD050EA410618BF52EA19
:100700004306D1D181EA030101F000414FF000001E
:1007100070BD50EA410606BF1046194652EA43062C
:1007200019D094EA0C0F02D150EA013613D195EAA0
:100730000C0F05D152EA03361CBF104619460AD1E8
:1007400081EA030101F0004141F0FE4141F47001F2
:100750004FF0000070BD41F0FE4141F4780170BDE2
:1007600070B54FF0FF0C4CF4E06C1CEA11541DBF47
:100770001CEA135594EA0C0F95EA0C0F00F0A7F849
:10078000A4EB050481EA030E52EA03354FEA013176
:1007900000F088804FEA03334FF0805545EA131389
:1007A00043EA12634FEA022245EA111545EA106551
:1007B0004FEA00260EF000419D4208BF964244F1E8
:1007C000FD0404F5407402D25B084FEA3202B61A07
:1007D00065EB03055B084FEA32024FF480104FF4DB
:1007E000002CB6EB020E75EB030E22BFB61A75464F
:1007F00040EA0C005B084FEA3202B6EB020E75EBE2
:10080000030E22BFB61A754640EA5C005B084FEA49
:100810003202B6EB020E75EB030E22BFB61A754616
:1008200040EA9C005B084FEA3202B6EB020E75EB21
:10083000030E22BFB61A754640EADC0055EA060EE2
:1008400018D04FEA051545EA16754FEA06164FEA25
:10085000C30343EA52734FEAC2025FEA1C1CC0D1D1
:1008600011F4801F0BD141EA00014FF000004FF05E
:10087000004CB6E711F4801F04BF01430020B4F11F
:10088000FD0C88BFBCF5E06F3FF6AFAEB5EB030CD7
:1008900004BFB6EB020C5FEA500C50F1000041EBD4
:1008A000045170BD0EF0004E4EEA113114EB5C04A1
:1008B000C2BFD4EB0C0541EA045170BD41F4801174
:1008C0004FF0000E013C90E645EA060E8DE60CEA7C
:1008D000135594EA0C0F08BF95EA0C0F3FF43BAF99
:1008E00094EA0C0F0AD150EA01347FF434AF95EA50
:1008F0000C0F7FF425AF104619462CE795EA0C0F34
:1009000006D152EA03353FF4FDAE1046194622E700
:1009100050EA410618BF52EA43067FF4C5AE50EADA
:1009200041047FF40DAF52EA43057FF4EBAE12E7CA
:100930004FF0FF3C06E000BF4FF0010C02E000BFAB
:100940004FF0010C4DF804CD4FEA410C7FEA6C5C8E
:100950004FEA430C18BF7FEA6C5C1BD001B050EA31
:10096000410C0CBF52EA430C91EA030F02BF90EA1C
:10097000020F0020704710F1000F91EA030F58BFDB
:10098000994208BF90422CBFD8176FEAE37040F03D
:10099000010070474FEA410C7FEA6C5C02D150EADB
:1009A000013C07D14FEA430C7FEA6C5CD6D152EA96
:1009B000033CD3D05DF8040B704700BF844610465B
:1009C00062468C461946634600E000BF01B5FFF75A
:1009D000B7FF002848BF10F1000F01BD4DF808ED2A
:1009E000FFF7F4FF0CBF012000205DF808FB00BFFB
:1009F0004DF808EDFFF7EAFF34BF012000205DF855
:100A000008FB00BF4DF808EDFFF7E0FF94BF0120A1
:100A100000205DF808FB00BF4DF808EDFFF7CEFFA2
:100A200094BF012000205DF808FB00BF4DF808EDE1
:100A3000FFF7C4FF34BF012000205DF808FB00BFB2
:100A40004FEA410212F5001215D211D56FF47873F6
:100A5000B3EB625212D94FEAC12343F0004343EA99
:100A6000505311F0004F23FA02F018BF4042704774
:100A70004FF00000704750EA013005D111F00040FE
:100A800008BF6FF0004070474FF00000704700BF94
:100A90004A0011D212F5001211D20DD56FF47873FD
:100AA000B3EB62520ED44FEAC12343F0004343EA52
:100AB000505323FA02F070474FF00000704750EA9D
:100AC000013002D14FF0FF3070474FF00000704707
:100AD0004FEA4102B2F1E04324BFB3F5001CDCF160
:100AE000FE5C0DD901F0004C4FEAC0024CEA507098
:100AF000B2F1004F40EB830008BF20F001007047C7
:100B000011F0804F21D113F13872BCBF01F00040C9
:100B1000704741F480114FEA5252C2F11802C2F1FB
:100B2000200C10FA0CF320FA02F018BF40F001007C
:100B30004FEAC1234FEAD32303FA0CFC40EA0C002E
:100B400023FA02F34FEA4303CCE77FEA625307D16B
:100B500050EA01331EBF4FF0FE4040F440007047A2
:100B600001F0004040F0FE4040F40000704700BF3C
:100B700080F0004002E000BF81F0004142001FBF52
:100B80005FEA410392EA030F7FEA226C7FEA236C5B
:100B90006AD04FEA1262D2EB1363C1BFD218414050
:100BA00048404140B8BF5B42192B88BF704710F0E6
:100BB000004F40F4000020F07F4018BF404211F089
:100BC000004F41F4000121F07F4118BF494292EAF1
:100BD000030F3FD0A2F1010241FA03FC10EB0C001D
:100BE000C3F1200301FA03F100F0004302D54942AA
:100BF00060EB4000B0F5000F13D3B0F1807F06D357
:100C000040084FEA310102F10102FE2A51D2B1F14E
:100C1000004F40EBC25008BF20F0010040EA030043
:100C20007047490040EB000010F4000FA2F10102F0
:100C3000EDD1B0FA80FCACF1080CB2EB0C0200FA7A
:100C40000CF0AABF00EBC25052421843BCBFD040C8
:100C50001843704792F0000F81F4000106BF80F442
:100C600000000132013BB5E74FEA41037FEA226C05
:100C700018BF7FEA236C21D092EA030F04D092F0D0
:100C8000000F08BF0846704790EA010F1CBF002004
:100C9000704712F07F4F04D1400028BF40F0004061
:100CA000704712F100723CBF00F50000704700F081
:100CB000004343F0FE4040F4000070477FEA2262A8
:100CC00016BF08467FEA23630146420206BF5FEA79
:100CD000412390EA010F40F4800070474FF0000379
:100CE00004E000BF10F0004348BF40425FEA000C40
:100CF00008BF704743F0964301464FF000001CE0E8
:100D000050EA010208BF70474FF000030AE000BF3D
:100D100050EA010208BF704711F0004302D540427B
:100D200061EB41015FEA010C02BF844601460020ED
:100D300043F0B64308BFA3F18053A3F50003BCFA08
:100D40008CF2083AA3EBC25310DB01FA02FC6344B5
:100D500000FA02FCC2F12002BCF1004F20FA02F2BC
:100D600043EB020008BF20F00100704702F12002AF
:100D700001FA02FCC2F1200250EA4C0021FA02F210
:100D800043EB020008BF20EADC707047F8B5002290
:100D9000002307460E46FFF72BFE28B9384631469A
:100DA000BDE8F84000F00AB8384606F1004100F00E
:100DB00005F8404261EB4101F8BD00BFD0B500220B
:100DC0000E4B06460F46FFF7A1FBFFF761FE0446F8
:100DD000FFF726FB00220A4BFFF798FB02460B4663
:100DE00030463946FFF7DEF9FFF752FE2346002270
:100DF00042EA000210461946D0BD00BF0000F03D97
:100E00000000F041844641EA000313F0030349D196
:100E1000403A23D30B6803604B6843608B68836060
:100E2000CB68C3600B6903614B6943618B69836164
:100E3000CB69C3610B6A03624B6A43628B6A83624C
:100E4000CB6AC3620B6B03634B6B43638B6B836334
:100E5000CB6BC36340304031403ADBD230320BD3EE
:100E60000B6803604B6843608B688360CB68C3602A
:100E700010301031103AF3D20C3205D351F8043B44
:100E800040F8043B043AF9D2043208D0D2071CBF20
:100E900011F8013B00F8013B01D30B880380604649
:100EA000704700BF082A13D38B07B1D010F003039B
:100EB000AED0C3F10403D21ADB071CBF11F8013B0B
:100EC00000F8013BA4D331F8023B20F8023B9FE736
:100ED000043AD9D3013A11F8013B00F8013BF9D2A9
:100EE0000B7803704B7843708B7883706046704743
:100EF0004FEA410C7FEA6C5C02D150EA013C0AD116
:100F00004FEA430C7FEA6C5C02D152EA033C02D107
:100F10004FF0000070474FF00100704753B94AB9D5
:100F2000002908BF00281CBF4FF0FF314FF0FF30F1
:100F300000F082B9ADF1080C6DE904CE00F006F8BE
:100F4000DDF804E0DDE9022304B070472DE9F04F3D
:100F50008C460C460546099E002B4FD18A42174607
:100F60006BD9B2FA82FEBEF1000F0BD0CEF1200594
:100F700020FA05F501FA0EF345EA030C02FA0EF722
:100F800000FA0EF5390CBCFBF1F0BAB201FB10C34C
:100F900000FB02F84FEA154C4CEA0344A04509D97E
:100FA000E41900F1FF3380F02881A04540F225814B
:100FB00002383C44C8EB0404B4FBF1F301FB134CCE
:100FC00003FB02F2ACB244EA0C418A4209D9C919C6
:100FD00003F1FF3480F00F818A4240F20C81023B22
:100FE00039448A1A43EA00400021002E63D022FAD5
:100FF0000EF2002386E80C00BDE8F08F8B4207D983
:10100000002E56D0002186E811000846BDE8F08F7A
:10101000B3FA83F1002940F09380A34202D38242C5
:1010200000F2FE80851A64EB03039C460120002E2B
:1010300041D086E82010BDE8F08F12B90127B7FB38
:10104000F2F7B7FA87FEBEF1000F36D1E41B4FEA84
:1010500017481FFA87F90121B4FBF8F308FB134482
:1010600009FB03F24FEA154C4CEA0444A24207D9AB
:10107000E41903F1FF3002D2A24200F2D38003460A
:10108000A41AB4FBF8F008FB104809FB00F9ACB255
:1010900044EA0842914507D9D21900F1FF3402D23F
:1010A000914500F2BA802046C9EB020240EA0340B3
:1010B0009BE731463046BDE8F08F07FA0EF7CEF1D8
:1010C000200C24FA0CF34FEA1748B3FBF8FA1FFA86
:1010D00087F908FB1A3520FA0CFC04FA0EF40AFB17
:1010E00009FB4CEA040C4FEA1C4242EA05439B45CB
:1010F00000FA0EF50AD9DB190AF1FF3280F08B8075
:101100009B4540F28880AAF1020A3B44CBEB0303E3
:10111000B3FBF8F008FB103300FB09F41FFA8CFC5A
:101120004CEA03439C4207D9DB1900F1FF326ED22F
:101130009C426CD902383B441C1B40EA0A418BE7B5
:10114000C1F1200E8B4022FA0EFC4CEA030C24FA6B
:101150000EF74FEA1C49B7FBF9FA1FFA8CF309FBAB
:101160001A7720FA0EF88C400AFB03F548EA0404CB
:101170004FEA144848EA0747BD4202FA01F200FA72
:1011800001FB09D917EB0C070AF1FF3041D2BD4230
:101190003FD9AAF1020A67447F1BB7FBF9F509FBA7
:1011A000157705FB03F3A4B244EA0747BB4208D90D
:1011B00017EB0C0705F1FF3027D2BB4225D9023DC2
:1011C000674445EA0A40A0FB0289FF1A4F4545469D
:1011D0004C4614D329D066B3BBEB050367EB040779
:1011E00007FA0EFECB40CF404EEA030386E88800A4
:1011F0000021BDE8F08F2346F3E61846DAE6B8EBA7
:10120000020569EB0C040138E5E70546D9E710460D
:1012100092E78246C0E7924678E702383A4443E7CD
:10122000084604E7023B3C442AE7C345E7D33C4673
:10123000D1E73146BDE8F08F704700BF70B4840736
:1012400046D0541E002A41D0CDB2034602E0621EB1
:10125000E4B3144603F8015B9A07F8D1032C2ED9A6
:10126000CDB245EA05250F2C45EA054519D9264694
:1012700003F11002103E0F2E42F8105C42F80C5C95
:1012800042F8085C42F8045C02F11002F2D8A4F1C2
:10129000100222F00F0204F00F041032032C13444A
:1012A0000DD91E462246043A032A46F8045BFAD8B2
:1012B000221F22F003020432134404F003042CB171
:1012C000C9B21C4403F8011BA342FBD170BC704798
:1012D00014460346C2E700BF024B13B1024800F0B8
:1012E00005B8704700000000F9120008002301460D
:1012F0001A46184600F014B838B5074D074C2C1B99
:10130000A41005D0013C55F8043D9847002CF9D1B4
:10131000BDE838400DF078BD28EE000824EE000846
:101320002DE9F047254C064625688846D5F8484102
:1013300092469946C4B360681F2817DC411C76B1F9
:1013400004EB8003C3F888A0D4F8885101228240BE
:101350001543022EC4F88851C3F808911ED0831C8F
:101360006160002044F82380BDE8F087144B03B38C
:101370004FF4C870AFF300800446D0B1D5F84831BF
:10138000002784E888003846C5F848410121C4F8A0
:101390008871C4F88C71002EE1D0D1E7D4F88C317B
:1013A0001A43C4F88C21DAE705F5A674C5F848415C
:1013B000C1E74FF0FF30BDE8F08700BF00E800084C
:1013C0000000000090B484B000AF03460A46FB71F1
:1013D0001346BB710023FB60BB7903F003039B0042
:1013E0000F2202FA03F3FB601649BB799B08DBB2BC
:1013F0001846144ABB799B08DBB2023352F823200B
:10140000FB68DB431A40831C41F823200D48BB795D
:101410009B08DBB21C460B4ABB799B08DBB202334C
:1014200052F82320F979BB7903F003039B0001FAFA
:1014300003F31A43A31C40F8232000BF1037BD4616
:1014400090BC70470000014080B485B000AF786068
:101450000023FB60344BFB607B689B79002B4FD0F3
:101460003149314B1A687B681B68DB4313400B60C2
:101470002D492D4B5A687B681B68DB4313404B603A
:101480007B681B791A46FB681344FB60FB68FA68AB
:1014900011687A6812680A431A602349224B9A68D5
:1014A0007B681B68DB4313408B601F491E4BDA6867
:1014B0007B681B68DB431340CB607B685B79102B38
:1014C0000ED11949184B9A687B681B6813438B60CF
:1014D0001549154BDA687B681B681343CB601DE028
:1014E000114BFB607B685B791A46FB681344FB6019
:1014F000FB68FA6811687A6812680A431A600DE09E
:101500007B681B791A46FB681344FB60FB68FA682A
:1015100011687A681268D2430A401A6000BF143713
:10152000BD4680BC704700BF0004014080B483B05A
:1015300000AF7860034A7B68536100BF0C37BD463B
:1015400080BC70470004014080B485B000AF786073
:101550000023FB60094B1B68FB60FB6823F0010361
:10156000FB60FA687B681343FB60044AFB68136006
:1015700000BF1437BD4680BC704700BF003C02402E
:1015800080B483B000AF0346FB71FB79002B06D01B
:10159000084A084B1B6843F00203136005E0054A44
:1015A000044B1B6823F00203136000BF0C37BD46D9
:1015B00080BC7047003C024080B483B000AF03465B
:1015C0003960FB713B6812221A80034B18460C37B6
:1015D000BD4680BC704700BF4804002080B483B083
:1015E00000AF03463960FB713B6804221A80034B4D
:1015F00018460C37BD4680BC704700BF5C04002015
:1016000080B582B000AF03463960FB71FB79002BD7
:1016100005D13A680749084804F07EFA04E03A68C0
:101620000449064804F078FA024B18460837BD46CC
:1016300080BD00BF3C230020D4E40008F8E400088B
:1016400080B582B000AF03463960FB713A68044947
:10165000044804F061FA024B18460837BD4680BDC5
:101660003C2300201CE5000880B582B000AF034693
:101670003960FB71FB79002B05D13A6807490848AE
:1016800004F04AFA04E03A680449064804F044FACF
:10169000024B18460837BD4680BD00BF3C230020E2
:1016A00030E5000840E5000880B582B000AF034691
:1016B0003960FB71FB79002B05D13A68074908486E
:1016C00004F02AFA04E03A680449054804F024FAD0
:1016D000024B18460837BD4680BD00BF3C230020A2
:1016E00050E5000880B582B000AF03463960FB7159
:1016F000FB79002B05D13A680749084804F00CFA39
:1017000004E03A680449054804F006FA024B18461A
:101710000837BD4680BD00BF3C2300205CE50008C3
:1017200090B589B000AF03463960FB711346BB71B9
:101730000023FB613868FEF795FE4FF00002544B22
:10174000FEF7E4FE03460C4618462146FFF778F9FB
:1017500003467B617B69FF2B01DDFF237B61BB7946
:10176000012B39D1FB79042B01D0072B19D1FB793F
:10177000484AD35C3B6102E0FB690133FB614649A7
:101780003A6913461B0113449B00CA18FB691344B2
:101790001B781A467B699A42EEDBFB691C3BBB61F6
:1017A00052E0FB793D4AD35C3B6102E0FB690133C7
:1017B000FB613B493A691346DB0013449B00134429
:1017C000CA18FB6913441B781A467B699A42EDDB01
:1017D000FB69173BBB6137E0FB79042B01D0072B7A
:1017E0001AD1FB792B4AD35C3B6102E0FB690133E0
:1017F000FB612C493A6913461B019B1A9B009B1AFB
:10180000CA18FB6913441B781A467B699A42EDDBC0
:10181000FB691E3BBB6117E0FB79204AD35C3B614F
:1018200002E0FB690133FB611F4A3B691A2101FB9E
:1018300003F31A44FB6913441B781A467B699A42E6
:10184000EFDBFB69113BBB61B869FFF74BFA03465D
:101850001846FEF707FE03460C46C7E902340AA302
:10186000D3E90023D7E90201FEF750FE03460C46F8
:10187000C7E90234D7E90234184621462437BD4669
:1018800090BD00BFAFF300807B14AE47E17A843F88
:10189000000010400CE80008A8E8000804E8000870
:1018A00014E8000898E9000830E9000880B586B01F
:1018B00000AFF860B9601346FB800023FB75FA881F
:1018C000FB68C3F83C21FA88FB68C3F83821FB6841
:1018D000022283F81121FB88BA680021F86808F019
:1018E000F9FBFB7D18461837BD4680BD80B586B034
:1018F00000AFF860B9601346FB800023FB75FA88DF
:10190000FB68C3F89423FA88FB68C3F89023FB684C
:10191000032283F81121FB88BA680021F86808F0D7
:1019200097FBFB7D18461837BD4680BD80B584B057
:1019300000AF78600B46FB7002234022812178685B
:1019400008F0F2FA022340220121786808F0ECFA4C
:10195000032308228221786808F0E6FA0B4BFB602B
:10196000FB68043302221A70FB68053300221A70E8
:10197000074B1B6898474023064A0121786808F006
:1019800067FB002318461037BD4680BD4804002081
:10199000F4040020700C002080B582B000AF7860A5
:1019A0000B46FB708121786808F016FB01217868EE
:1019B00008F012FB8221786808F00EFB034B5B688D
:1019C0009847002318460837BD4680BDF404002020
:1019D00080B584B000AF786039603A23FB813F4B1B
:1019E000BB603B681B7803F06003002B3DD0202BCD
:1019F00035D13B68DB88002B27D03B681B785BB276
:101A0000002B10DA364B9B683A68527810463A68D9
:101A1000D288344998473B68DB881A463149786850
:101A2000FFF744FF19E03B685B781A462E4B1A60BB
:101A30003B68DB881A462D4B1A603B68DB881A46E8
:101A400028497868FFF752FF07E0254B9B683A6802
:101A50005278104600220021984700233AE0396866
:101A6000786804F045F8022334E03B685B780A2B81
:101A700018D00B2B1CD0062B2BD13B685B881B0A84
:101A80009BB2212B07D11A4BBB603B68DB883A2BFA
:101A900028BF3A23FB81FB891A46B9687868FFF7AB
:101AA00005FF16E0012213497868FFF7FFFE10E0FA
:101AB0003B685B88DBB2002B06D13B685B88DBB2FE
:101AC0001A460C4B1A6003E03968786804F010F885
:101AD00000BF002318461037BD4680BD69040020B2
:101AE000F4040020B00C0020A4040020280B0020E7
:101AF00072040020140B002080B582B000AF786023
:101B0000094B1B68FF2B0AD0084B9B68064A1068DC
:101B1000074A126807499847034BFF221A600023BF
:101B200018460837BD4680BDA4040020F4040020F8
:101B3000280B0020B00C002080B584B000AF786086
:101B40000B46FB70214B1B78012B39D1204B1B68B6
:101B5000002B03D11D4B00221A7031E01C4B1B6877
:101B6000402B0FD91B4B1B68FB814023BB81194BBA
:101B70001B684033174A1360154B1B68403B144ADF
:101B8000136015E0134B1B68FB81114B1B68BB8175
:101B9000104B1A680E4B1B6813440E4A13600C4B13
:101BA00000221A600B4B00221A600B4B00221A60B5
:101BB000FB890A4A1A44BB898121786808F08AFAAD
:101BC000002318461037BD4680BD00BF240B0020FF
:101BD000200B00201C0B0020180B0020B80C00204C
:101BE00080B584B000AF78600B46FB70FA787968F6
:101BF00013469B001344DB000B4403F563731B681F
:101C0000FB81084B1B69FA89114607489847402316
:101C1000054A0121786808F01BFA0023184610379E
:101C2000BD4680BDF4040020700C002080B582B059
:101C300000AF7860084B1B685A1C07490A60012BEB
:101C400005D1054B00221A60786800F007F80023E0
:101C500018460837BD4680BD2C0B002080B584B0E7
:101C600000AF7860304B1B78012B5AD02F4B1B688C
:101C7000B3F5805F02D12D4B00221A602B4B1A68FE
:101C80002B4B1B689A4203D1274B00221A7048E065
:101C9000264B1A68264B1B689A4206D9234B1B68B1
:101CA000C3F58053234A136006E0214B1A681F4B8B
:101CB0001B68D31A1F4A13601E4B1B68402B0FD999
:101CC0001A4B1B68FB814023BB81184B1B684033B8
:101CD000164A1360174B1B68403B164A136015E009
:101CE000124B1B68FB81134B1B68BB810F4B1A689F
:101CF000104B1B6813440D4A13600E4B00221A60F0
:101D00000A4B00221A600A4B00221A60064B01227D
:101D10001A70FB89084A1A44BB898121786808F047
:101D2000D9F91037BD4680BD240B00201C0B0020C4
:101D3000180B0020200B0020B80C002080B483B0CA
:101D400000AF03463960FB713B6843221A80034BA6
:101D500018460C37BD4680BC704700BF60040020A9
:101D60002DE97043814690461E460C4602F0F4F879
:101D7000164B10221A85B9F1000F0ED0144D2146D2
:101D8000AE4604EB090211F8013BAB812C89E40754
:101D9000FCD58A42BEF80C30F5D1B8F1000F0DD059
:101DA0000B4933460D4606EB080413F8012B8A81D4
:101DB0000A89D207FCD5A342AA89F6D1034B102287
:101DC0001A8302F0DDF80020BDE8708300000240B5
:101DD000003001402DE97043814690461E460C4676
:101DE00002F0BAF8174B10221A85B9F1000F0FD084
:101DF000154D2146AE4604EB090211F8013BAB81BB
:101E00002C89E407FCD5BEF80C3091423370F4D134
:101E1000B8F1000F0ED00C4933460C464FF00005C8
:101E2000B0448D810A89D207FCD5A28903F8012B21
:101E30009845F6D1034B10221A8302F0A1F8002036
:101E4000BDE8708300000240003001402DE9784178
:101E500006461546002937D101284FD030480C4698
:101E60004FF4006108F09AFC4FF480512C4808F0C0
:101E700095FC002E36D0A046013D002415F8011F28
:101E8000284808F0F5FA0121264808F0FFFA002852
:101E9000F9D00134234808F0DFFAB442EED34FF40E
:101EA00000611F4808F07AFC4FF480511C4808F08C
:101EB00067FCB8F1000F01D1BDE878814FF4FA60FA
:101EC000BDE8784108F0ECB94FF40061144808F01F
:101ED00057FC4FF48051124808F060FC4FF00008A6
:101EE000002EC9D14FF400610D4808F057FCBDE841
:101EF00078414FF480510A4808F042BC14784FF4FE
:101F0000006114F00308064818BF4FF0010808F0FC
:101F100045FC4FF48051024808F040FCACE700BF9C
:101F2000000402400038004080B483B000AF786005
:101F30007B68B3F85232DAB27B6883F8EE207B68B4
:101F4000B3F852321B0A9BB2DAB27B6883F8EF20F7
:101F50007B68412283F8EB207B68CC2283F8EC205D
:101F600000BF0C37BD4680BC704700BF80B582B053
:101F700000AF786039603B68DAB27B6883F8002193
:101F80007868FFF7D1FF00BF0837BD4680BD00BFAE
:101F9000B0B586B000AFF860B960C7E90023BB6890
:101FA000002B0AD0D7E90023140A44EA03641D0A6F
:101FB00023467B61786903F05BFBB86803F006FC9D
:101FC0000246FB68D3F8C0329A1AFB68C3F8C022F5
:101FD00000BF1837BD46B0BD80B584B000AF034622
:101FE0003A60FB800B467B710023FB60FB8800217D
:101FF000184602F01BFF7B7903F00103002B02D08F
:10200000386803F035FB7B79184603F037FB03464D
:10201000002B01D00123FB60FB6818461037BD463A
:1020200080BD00BF2DE9B043ACB000AF786039602F
:102030007B685B780A2B01F2098001A252F823F039
:102040006D200008BD22000857250008F52500086E
:10205000E5250008A3260008CD2700080D28000864
:10206000BF21000837230008C52300087B681B78C0
:10207000012B05D0022B59D0002B00F08C809CE066
:102080000023C7F8AC30182002F0ACFF7B680122B7
:1020900083F821207B68B3F85232184602F0C2FF61
:1020A0007B6803F51173184602F0C2FF7B6803F1E9
:1020B000F8007B6803F5117308221946FEF7A2FEAB
:1020C0007B6803221A707B6809225A707B6803F5CB
:1020D000AE707B6803F5117308221946FEF792FE75
:1020E00040F64113C7F8AC3002F056FC0346002B13
:1020F00005D0D7F8AC3043F48053C7F8AC307B68D8
:102100009B7A042B05D1D7F8AC3043F08003C7F895
:10211000AC307B6893F82230002B4DD0D7F8AC3030
:102120009BB20721184602F0CFFF45E0002002F0E5
:1021300059FF7B68002283F821207B6803F5117327
:10214000184602F075FF7B68B3F85232184602F069
:1021500069FF7B6803F1F8007B6803F511730822BF
:102160001946FEF74FFE7B6803F189007B6803F593
:10217000117308221946FEF745FE002003F028F8E7
:102180007B6806225A70002003F054FB7B68012212
:1021900083F86C2311E0002002F024FF7B6800220A
:1021A00083F82120002003F013F87B6806225A7080
:1021B000002003F03FFB00E000BF00F04ABF0A2010
:1021C00005F0C2FBC7F89400D7F894301B78042BB5
:1021D00004D07B6801225A6000F03BBF7B6800227C
:1021E0005A607B68002283F889227B689A787B6832
:1021F0005A707B6800229A7001F040FF02467B68AB
:10220000C3F88C227B68D3F88C227B68C3F89022B9
:102210007B6893F82230002B4CD00023C7F8A830FD
:10222000032002F053FA1021BB4808F0B7FABB4B69
:102230000022C3F87826012002F08AF94FF4FA60F0
:1022400008F02EF804E0D7F8A8300133C7F8A8301A
:10225000B24BD3F87836002BF5D0002002F078F995
:102260001021AD4808F08CFA02F0B4FBC7F8A800C2
:1022700002F0B0FBC7F8A80002F0ACFBC7F8A8005A
:1022800002F0A8FBC7F8A80002F0A4FBC7F8A8005A
:10229000032002F0E1F9012003F00AF97B689B8B2F
:1022A000184602F089FD002002F020FF0121802065
:1022B00003F0F2FA05F0E6FD00F0CBBE7B689B78F8
:1022C000022B03D07B689B78092B29D17B6893F87C
:1022D0008932002B24D07B6802225A607B68082256
:1022E0005A707B681B78032B03D17B68012283F82B
:1022F0006C237B6893F82230002B01D002F0E2FEC1
:102300007B6803F5287318CB012B74F1000310DBF5
:10231000786804F035F97B680122C3F8582308E097
:102320007B689A787B685A707B6800229A7000F00C
:1023300090BE00F08EBE0C23C7F890307B68C5229B
:1023400083F85A217B6893F850325A1CD1B27A68CC
:1023500082F850127A6882F85B31D7F8903098B2E0
:102360007B6803F5AD730022194602F04FFDD7F8E4
:1023700090309BB20021184602F058FD7B68022283
:1023800083F888227B68DB6D9BB2184603F052FA13
:102390007B685B6D184602F01BFF7B6893F8883200
:1023A000184603F06BF97B68012283F889227B6869
:1023B00005225A707B680922DA707B6801225A6014
:1023C00000F047BE7B680722A3F84E227B682022DC
:1023D00083F891207B68B3F84C32DAB27B6883F8DB
:1023E00092207B68B3F84C321B0A9BB2DAB27B684E
:1023F00083F893207B681B6F9BB29633A7F88E30CF
:10240000B7F88E30C3F30E03A7F88C30B7F88C30D2
:10241000DAB27B6883F89420B7F88C301B0A9BB241
:10242000DAB27B6883F895207B685B6F9BB203F51B
:10243000FA73A7F88E30B7F88E30C3F30E03A7F8FF
:102440008C30B7F88C30DAB27B6883F89620B7F816
:102450008C301B0A9BB2DAB27B6883F897207B68CA
:10246000412283F87C207B68CC2283F87D207B6826
:10247000B3F84E3217339AB27B68A3F84E227B68CA
:10248000B3F85232DAB27B6883F87F207B68B3F806
:1024900052321B0A9BB2DAB27B6883F880207B68D9
:1024A00093F850325A1CD1B27A6882F850127A6886
:1024B00082F87E307B68022283F888227B680522BE
:1024C0005A707B680A22DA707B68B3F84E027B6828
:1024D0007C330022194602F099FC7B68B3F84E0267
:1024E0007B681B6E1A460321FFF776FD0346002B1F
:1024F00016D0002002F06CFE7B6806225A707B68C2
:10250000002283F888227B68D3F8BC325A1C7B688F
:10251000C3F8BC2200F09DBD00000240B81C0020A2
:102520007B6805225A707B680A22DA707B68012278
:102530005A607B68022283F801217B68002283F8BD
:1025400002217B68002283F8032110217868FFF7BD
:102550000DFD00F07EBD7B68012283F889227B6837
:1025600093F850325A1CD1B27A6882F850127A68C5
:1025700082F8ED3021217868FFF7F8FC7B6818229B
:10258000A3F84E227B681B6D184602F021FE7B6883
:102590009B6D9BB2184603F04DF97B68B3F84E0271
:1025A0007B68EB330022194602F030FC7B68022284
:1025B00083F888227B68B3F84E320021184602F077
:1025C00035FC7B6893F88832184603F057F87B682F
:1025D00005225A707B680222DA707B6801225A60F9
:1025E00000F037BD7B6805225A707B680422DA70E0
:1025F00000F02FBD7B6803F583707B6803F51A73C9
:1026000005221946FEF7FEFB29217868FFF7AEFC8C
:102610007B682722A3F84E227B68B3F84E027B68C2
:10262000EB330022194602F0F1FB7B68B3F84E024F
:102630007B681B6E1A460121FFF7CEFC0346002B78
:102640001AD07B6801225A707B6802229A707B68DC
:1026500093F82230002B02D0002002F047FD7B6867
:10266000002283F888227B68D3F8BC325A1C7B682E
:10267000C3F8BC2200F0EDBC7B6805225A707B6871
:102680000322DA707B6801225A6001F0F7FC0246EF
:102690007B68C3F874267B68012283F8732600F0F8
:1026A000D8BC0B2005F050F9C7F88800D7F888305F
:1026B0001B78012B0DD0D7F888301B78042B03D161
:1026C0007B68012283F894227B6801225A6000F023
:1026D000C0BC7B6800225A607B68DB78032B07D183
:1026E0007B6801225A707B6802229A7000F0B1BCAC
:1026F0007B6893F89432002B0CD0786804F016FDB8
:102700007B68002283F894227B68002283F8882269
:1027100000F09FBCD7F88830D3E90223796801F52F
:102720001871C1E900237B68DB78022B49D17B68F3
:1027300003F51873D3E900017B68D3E90E2312185F
:1027400043EB0103B7484FF0FF0102EA000203EA3E
:102750000103C7E90C23D7E90C234FEA122848EA02
:1027600003684FEA132942467B681A667B689B8B95
:1027700098B24FF00001D7E90C23121843EB010384
:10278000C7E90C23D7E90C234FF0FF304FF0FF01CE
:1027900002EA000203EA0103C7E90C237B6803F2A3
:1027A0000B1307F1300105221846FEF72BFB7B685F
:1027B00003F201107B6803F5187305221946FEF732
:1027C00021FB7B6806225A7000233B607B6893F8EC
:1027D0008832002B08D14FF000024FF00003002197
:1027E0007868FFF7D5FB03E07B68002283F8882236
:1027F0007B681B78002B02D07B6801225A607B68C3
:1028000007225A703B68002B00F022843B68042B9F
:1028100000F00784072B03D0022B6FD000F00ABC16
:102820000C2005F091F8C7F884007B681B78002B1A
:1028300003D07B681B78022B59D17B68012283F877
:102840006C23D7F884301A331946786803F0F4FF04
:102850007B6893F86D33002B49D17B6893F86D3317
:102860006E33DB007A68D018D7F884301A33082228
:10287000194607F0B7FF0346002B38D102F096F84F
:1028800003469BB2DBB29AB27B68A3F84C227B680A
:10289000B3F84C321B029AB2D7F884309B7E9BB2BD
:1028A00013449AB27B68A3F84C22D7F88430D3E95A
:1028B00002017B68D3E90C23121843EB0103140ACD
:1028C00044EA03641D0A22467B681A667B6803F1AA
:1028D0008100D7F884301A3308221946FEF792FA9D
:1028E0007B6801225A707B680A229A70ADE37B688C
:1028F00006225A707B6800225A60A6E30F2005F07A
:1029000023F8C7F8800007F1280300221A605A60F4
:102910000023C7F8A4300023C7F8A0307B6800224A
:1029200083F88A22D7F880305B7E8C2B34D08C2BB6
:1029300002DC882B46D05BE0C82B17D0CC2B57D1BC
:10294000D7F8803003F1250107F128030822184643
:10295000FEF758FAD7F8803093F82D30C7F8A0303A
:10296000D7F880302D33C7F89C3041E0D7F880305D
:1029700003F11F0107F1280308221846FEF742FA67
:10298000D7F8803093F82730C7F8A030D7F88030D8
:102990002733C7F89C302BE0D7F8803003F12501AE
:1029A00007F1280302221846FEF72CFAD7F88030E8
:1029B00093F82730C7F8A030D7F880302733C7F80E
:1029C0009C3015E0D7F8803003F11F0107F1280390
:1029D00002221846FEF716FAD7F8803093F8213015
:1029E000C7F8A030D7F880302133C7F89C3000BF3B
:1029F0007B681B78022B17D17B6893F86D336E339D
:102A0000DB007A68134407F128010822184607F012
:102A1000E9FE0346002B0BD1D7F8A030C7F8A4304D
:102A200006E000BF00FEFFFFD7F8A030C7F8A430D3
:102A3000D7F8A430103B192B00F2D18201A252F832
:102A400023F000BFB12C0008DF2F0008DF2F0008A3
:102A5000DF2F0008DF2F0008DF2F0008DF2F00081E
:102A6000DF2F0008DF2F0008DF2F0008DF2F00080E
:102A7000DF2F0008DF2F0008DF2F0008DF2F0008FE
:102A8000DF2F0008AD2A0008512C0008DF2F0008B6
:102A9000DF2F0008DF2F0008DF2F0008DF2F0008DE
:102AA000DF2F0008DF2F00084F2D00087B681B7800
:102AB000032B40F09B827B6801225A707B680222C4
:102AC0009A70D7F89C3001331B789AB2D7F89C30B3
:102AD00002331B789BB21B029BB213449AB27B68F1
:102AE000A3F84C22D7F89C3003331B781A46D7F84A
:102AF0009C3004331B781B0213443B62D7F89C3094
:102B000005331B781A46D7F89C3006331B781B0216
:102B100013447B620023C7F8983036E0D7F898302A
:102B20009B0007F1B002134453F8903C03F40043B8
:102B3000002B25D0D7F898309B0007F1B002134442
:102B400053F8903C23F40042D7F898309B0007F1EB
:102B5000B0010B4443F8902CD7F898309B0007F154
:102B6000B002134453F8903C4FF47A7202FB03F224
:102B7000D7F898309B0007F1B0010B4443F8902C34
:102B8000D7F898300133C7F89830D7F89830012B30
:102B9000C4DD3A6A7B681B6FD31A42F2107202FBE3
:102BA00003F3844AA2FB03231B09A3F110027B68F1
:102BB0001A653A6A7B6A1344FB67F86FFDF730FCCD
:102BC00003460C461846214603F086FC03460C4695
:102BD0007A68C2E90E34FB6F03F2E733764AA2FB50
:102BE00003239B091A467B689A643B6A46F2A71244
:102BF000934204D87B6A46F2A712934203D97B68BA
:102C0000002283F822207B68F03307F12801082294
:102C10001846FEF7F7F87B6803F5157307F12801EE
:102C200008221846FEF7EEF87B6801221A707B68CE
:102C3000002283F8892201F021FA02467B68C3F85A
:102C40008C227B68D3F88C227B68C3F89022CDE17C
:102C50007B681B78002B03D17B6806225A70C6E183
:102C60007B6893F82130002B06D1182002F0BAF9C6
:102C70007B68012283F821207B68DB78042B03D159
:102C80007B680322C3F85C23D7F880309B780C2B39
:102C90000AD17B68002283F86C237B6805225A7076
:102CA0007B680422DA70A2E17B6806225A709EE1FA
:102CB0007B681B78002B03D17B6806225A7096E153
:102CC000D7F8803003F10804D4E900347A6802F5BB
:102CD0001A72C2E900347B6803225A700221102064
:102CE00002F040F903461B099BB21A467B68C3F801
:102CF00068237B68022283F86C237B6803F52872C3
:102D00004FF000034FF00004C2E900347B6803F584
:102D10002870D7F89C30043305221946FEF772F864
:102D200097F828301A4697F829301B021A447B6816
:102D3000C3F860237B6893F844321A467B6893F8A3
:102D400045321B021A447B68C3F864234FE14FF0FD
:102D500000034FF00004C7E906344FF000034FF0C2
:102D60000004C7E91C344FF000034FF00004C7E92A
:102D700004344FF000034FF00004C7E902344FF071
:102D800000034FF00004C7E91A344FF000034FF07E
:102D90000004C7E918344FF000034FF00004C7E9FE
:102DA00016347B681B78002B08D17B6806225A708A
:102DB0001DE100BF813D6600D34D6210D7F8803021
:102DC00003F10804D4E90034C7E91C347B6800220D
:102DD0001A66D7F89C30591C07F1100305221846D3
:102DE000FEF710F8D7F89C30991D07F1080305226B
:102DF0001846FEF707F8D7F89C3003F10B0107F1EE
:102E0000180305221846FDF7FDFFD7E90212D7E99E
:102E10000434CB1A62EB0404194622464FF0FF3308
:102E20004FF0FF0403EA010304EA0204C7E9143483
:102E30007B6803F51873D3E900127B6803F51C73F4
:102E400018CBCB1A62EB0404194622464FF0FF332D
:102E50004FF0FF0403EA010304EA0204C7E9123455
:102E60007B6803F5187318CBD7E91C12CB1A62EBF9
:102E70000404194622464FF0FF334FF0FF0403EAE3
:102E8000010304EA0204C7E91034D7E90612D7E9BE
:102E90000234CB1A62EB0404194622464FF0FF338A
:102EA0004FF0FF0403EA010304EA0204C7E90E3409
:102EB000D7E91401FDF7FCFA04460D46D7E91001E5
:102EC000FDF7F6FA02460B4620462946FDF71EFBA3
:102ED00003460C4625461C46D7E90E01FDF7E8FAE5
:102EE00080468946D7E91201FDF7E2FA02460B4611
:102EF00040464946FDF70AFB02460B462046294656
:102F0000FDF750F903460C46C7E91A34D7E910011A
:102F1000FDF7CEFA04460D46D7E91201FDF7C8FACF
:102F200002460B4620462946FDF73EF903460C466D
:102F3000C7E91834D7E91401FDF7BAFA04460D467B
:102F4000D7E90E01FDF7B4FA02460B4620462946A2
:102F5000FDF72AF903460C46C7E91634D7E91623CC
:102F6000D7E91801FDF720F903460C461A46234617
:102F7000D7E91A01FDF7F4FB03460C461846214633
:102F8000FDF704FF03460C467A6802F52872C2E991
:102F90000034786803F0F4FA7B680122C3F8582300
:102FA00097F828301A4697F829301B021A447B6894
:102FB000C3F864237B6893F844321A467B6893F81D
:102FC00045321B021A447B68C3F860237B680622E3
:102FD0005A70002002F0FCF804F054FF07E07B6810
:102FE00006225A70002002F0F3F800E000BFD7F884
:102FF00080301B7E03F02003002B02D0102004F051
:10300000A3FC7B6893F88932002B1BD17B681B786B
:10301000002B17D17B6806225A70002002F0D8F8E6
:1030200010E0112004F090FC786804F07FF8002391
:103030003B600AE07B685B68002B05D17B6801225E
:103040005A6001E000BF04E000BF02E000BF00E002
:1030500000BF7B685B681846B037BD46BDE8B083EB
:1030600080B584B000AF78600023FB607B68D8B285
:10307000184AFB684FF4D06101FB03F31344024686
:103080001A70144AFB684FF4D06101FB03F3134438
:10309000013300221A7001210F4802F0FDFB0320CA
:1030A00002F006FA0D490E4802F0A4F80D4804F0AB
:1030B000A9FD084AFB684FF4D06101FB03F31344F8
:1030C00003F26F3300221A70002318461037BD46F2
:1030D00080BD00BFB81C002080D003240973000805
:1030E000A57100082520000890B587B000AF804B7F
:1030F000FB600A23BB60FB68DB7B1A467D4B9B5C55
:103100007B60FB689B7A043B302B00F2838001A23A
:1031100052F823F00F32000815320008153200086B
:1031200015320008F1310008153200081532000888
:1031300015320008D9310008153200081532000890
:103140001532000815320008153200081532000843
:10315000153200080932000815320008153200083F
:1031600015320008E9310008153200081532000850
:103170001532000815320008153200081532000813
:103180001532000815320008153200081532000803
:103190001532000801320008153200081532000807
:1031A00015320008E1310008153200081532000818
:1031B00015320008153200081532000815320008D3
:1031C00015320008153200081532000815320008C3
:1031D00015320008F93100084FF480537B6119E083
:1031E0004FF400637B6115E04FF4C0637B6111E035
:1031F0004FF480637B610DE04FF400737B6109E065
:103200004FF480737B6105E080237B6102E0402303
:103210007B6100BF7B687A6913447B61FB685B7AE2
:10322000012B05D17B69344A02FB03F37B6104E087
:103230007B69324A02FB03F37B6100233B61A6E01A
:103240002F4A3B6952F823102D4A3B6952F823302C
:1032500003F249132B4A82FB0302D211DB17D21A65
:1032600013465B0013445B000B44DB001946FB680C
:103270003A691A3243F82210FB68DB7B002B19D124
:10328000FB683A691A3253F822301F4A02FB03F1F5
:10329000FB683A691A3243F82210FB683A691A321D
:1032A00053F82220194B1344FA6839691A3142F84D
:1032B00021304BE0FB68DB7B012B2DD1FB683A69A9
:1032C0001A3253F82230124A02FB03F1FB683A69C2
:1032D0001A3243F82210FB683A691A3253F8222056
:1032E0000C4B1344FA6839691A3142F821302DE049
:1032F000B81C002084EA00081F840100838D0100AF
:1033000010EA000835064C6321850C00D0EB06015D
:10331000A4900100ACDD2000FB683A691A3253F832
:10332000223043F2152202FB03F1FB683A691A329C
:1033300043F82210FB683A691A3253F82220424BB4
:103340001344FA6839691A3142F82130FB683A6946
:103350001A3253F822207B69D118FB683A691A3275
:1033600043F82210FB683A691A3253F8223003F509
:10337000C3339F335B09354AA2FB0323D909FB689A
:103380003A691A3243F822103B6901333B613B69C9
:10339000042B7FF755AFFB689B6F42F2107202FB64
:1033A00003F32B4AA2FB03231A09BB68134410330F
:1033B0001A46FB689A65FB68DB6E42F2107202FBEC
:1033C00003F3234AA2FB03231A09BB6813441033F7
:1033D0001A46FB68DA65FB689B6E1E4A02FB03F225
:1033E0001D4B13441A4AA2FB03231B09103B1A4628
:1033F000FB685A65FB6840F2D712DA6410A1D1E984
:10340000000103F069F803460C46FA68C2E90C347F
:10341000FA684FF000034FF00004C2E91034FB6873
:103420009B6FB3F57A7F03D8FB6801225A7402E0E0
:10343000FB6800225A7400BF1C37BD4690BD00BF18
:1034400000000000804F0241ACDD2000C55A7C0A1C
:10345000813D6600F0D8FFFF002F68592DE9F00F7D
:103460008AB000AF00237B626A4C7A6A4FF4D06363
:1034700003FB02F3234403F511731B78DBB24FF017
:103480000004C7E90634634C7A6A4FF4D06303FB47
:1034900002F3234403F245231B78DBB24FF0000410
:1034A000210241EA13611802D7E9063443EA000316
:1034B00044EA0104C7E9063456497A6A4FF4D063F6
:1034C00003FB02F30B4403F246231B78DBB24FF0FD
:1034D00000044FEA044949EA13494FEA0348D7E98F
:1034E000063443EA080344EA0904C7E90634494AB2
:1034F0007B6A4FF4D06101FB03F3134403F24723CB
:103500001B78DBB24FF00004260646EA13261D06A0
:10351000D7E9063443EA050344EA0604C7E906345A
:103520003C4A7B6A4FF4D06101FB03F3134403F57B
:1035300012731B78DBB24FF000041B007B61002389
:103540003B61D7E90634D7E9041241EA030142EAB4
:1035500004020B461446C7E906342E4A7B6A4FF430
:10356000D06101FB03F3134403F249231B78DBB260
:103570004FF000041B02FB600023BB60D7E9063458
:10358000D7E9021241EA030142EA04020B4614465B
:10359000C7E906341F4A7B6A4FF4D06101FB03F38D
:1035A000134403F24A231B78DBB24FF000041B04E0
:1035B0007B6000233B60D7E90634D7E9001241EA7B
:1035C000030142EA04020B461446C7E90634114AD5
:1035D0007B6A4FF4D06101FB03F3134403F24B23E6
:1035E0001B78DBB24FF000044FEA036B4FF0000A88
:1035F000D7E9063443EA0A0344EA0B04C7E9063470
:10360000D7E90634184621462837BD46BDE8F00FF5
:10361000704700BFB81C00202DE9F00F8AB000AF42
:1036200000237B626A4C7A6A4FF4D06303FB02F397
:10363000234403F55C731B78DBB24FF00004C7E949
:103640000634634C7A6A4FF4D06303FB02F32344DD
:1036500003F271331B78DBB24FF00004210241EA20
:1036600013611802D7E9063443EA000344EA01046F
:10367000C7E9063456497A6A4FF4D06303FB02F374
:103680000B4403F272331B78DBB24FF000044FEAB5
:10369000044949EA13494FEA0348D7E9063443EAA3
:1036A000080344EA0904C7E90634494A7B6A4FF42F
:1036B000D06101FB03F3134403F273331B78DBB2D5
:1036C0004FF00004260646EA13261D06D7E9063405
:1036D00043EA050344EA0604C7E906343C4A7B6A28
:1036E0004FF4D06101FB03F3134403F55D731B78C2
:1036F000DBB24FF000041B007B6100233B61D7E984
:103700000634D7E9041241EA030142EA04020B46F7
:103710001446C7E906342E4A7B6A4FF4D06101FB98
:1037200003F3134403F275331B78DBB24FF000044C
:103730001B02FB600023BB60D7E90634D7E9021205
:1037400041EA030142EA04020B461446C7E9063483
:103750001F4A7B6A4FF4D06101FB03F3134403F269
:1037600076331B78DBB24FF000041B047B60002330
:103770003B60D7E90634D7E9001241EA030142EA87
:1037800004020B461446C7E90634114A7B6A4FF41B
:10379000D06101FB03F3134403F277331B78DBB2F0
:1037A0004FF000044FEA036B4FF0000AD7E90634EC
:1037B00043EA0A0344EA0B04C7E90634D7E90634AE
:1037C000184621462837BD46BDE8F00F704700BFB8
:1037D000B81C00202DE9F00F8AB000AF00237B62F7
:1037E0006A4C7A6A4FF4D06303FB02F3234403F577
:1037F00015731B78DBB24FF00004C7E90634634C45
:103800007A6A4FF4D06303FB02F3234403F2552397
:103810001B78DBB24FF00004210241EA1361180269
:10382000D7E9063443EA000344EA0104C7E9063451
:1038300056497A6A4FF4D06303FB02F30B4403F258
:1038400056231B78DBB24FF000044FEA044949EAE3
:1038500013494FEA0348D7E9063443EA080344EA28
:103860000904C7E90634494A7B6A4FF4D06101FB79
:1038700003F3134403F257231B78DBB24FF0000429
:10388000260646EA13261D06D7E9063443EA050351
:1038900044EA0604C7E906343C4A7B6A4FF4D06127
:1038A00001FB03F3134403F516731B78DBB24FF0EF
:1038B00000041B007B6100233B61D7E90634D7E994
:1038C000041241EA030142EA04020B461446C7E926
:1038D00006342E4A7B6A4FF4D06101FB03F3134494
:1038E00003F259231B78DBB24FF000041B02FB608C
:1038F0000023BB60D7E90634D7E9021241EA03018D
:1039000042EA04020B461446C7E906341F4A7B6AA2
:103910004FF4D06101FB03F3134403F25A231B78E5
:10392000DBB24FF000041B047B6000233B60D7E94F
:103930000634D7E9001241EA030142EA04020B46C9
:103940001446C7E90634114A7B6A4FF4D06101FB83
:1039500003F3134403F25B231B78DBB24FF0000444
:103960004FEA036B4FF0000AD7E9063443EA0A0333
:1039700044EA0B04C7E90634D7E906341846214661
:103980002837BD46BDE8F00F704700BFB81C0020C7
:1039900080B400AF134A134B1B6843F48073136069
:1039A0001049104B9A68104B13408B600D4A0D4B19
:1039B0001B6823F0885323F001131360094A094B55
:1039C0001B6823F480231360064A064B9B6823F48C
:1039D0007D039360034B0022DA6000BFBD4680BCCC
:1039E000704700BF003802400CC0FF8880B483B02D
:1039F00000AF0346FB71054B00221A70034AFB79A6
:103A0000137000BF0C37BD4680BC704702380240BF
:103A100080B582B000AF00233B600023FB71002320
:103A2000BB71312000F034FA0346BB713B680133AF
:103A30003B603B68B3F5A04F02D0BB79002BF0D0C0
:103A4000312000F025FA0346002B02D00123FB7140
:103A500001E00023FB71FB7918460837BD4680BDA5
:103A600080B483B000AF0346FB710B46BB711346B5
:103A70007B710749BA797B791343DAB2FB79134337
:103A8000DBB20B7000BF0C37BD4680BC704700BF77
:103A90000A38024080B483B000AF0346FB71044A89
:103AA000FB79136000BF0C37BD4680BC704700BF78
:103AB0006000474280B485B000AF78600023FB60AF
:103AC000094B9B68FB60FB6823F00303FB60FA680B
:103AD0007B681343FB60044AFB68936000BF1437A4
:103AE000BD4680BC704700BF0038024080B400AFC4
:103AF000044B9B68DBB203F00C03DBB21846BD46F7
:103B000080BC70470038024080B485B000AF786058
:103B10000023FB60094B9B68FB60FB6823F0F0030C
:103B2000FB60FA687B681343FB60044AFB689360A0
:103B300000BF1437BD4680BC704700BF003802404C
:103B400080B485B000AF78600023FB60094B9B68B0
:103B5000FB60FB6823F4E063FB60FA687B68134357
:103B6000FB60044AFB68936000BF1437BD4680BC0D
:103B7000704700BF0038024080B485B000AF786065
:103B80000023FB60094B9B68FB60FB6823F46053D8
:103B9000FB607B68DB00FA681343FB60034AFB6849
:103BA000936000BF1437BD4680BC704700380240A8
:103BB00080B489B000AF78600023FB610023BB6153
:103BC00000237B6100233B610023FB600023BB607B
:103BD0005F4B9B6803F00C03FB61FB690C2B65D802
:103BE00001A252F823F000BF1D3C0008AD3C0008C4
:103BF000AD3C0008AD3C00083D3C0008AD3C000871
:103C0000AD3C0008AD3C0008453C0008AD3C000858
:103C1000AD3C0008AD3C00084D3C00084C4B5B68D7
:103C200003F460435B0BBB60BB6801334FF400429D
:103C300002FA03F31A467B681A6047E07B68454A3C
:103C40001A6043E07B68444A1A603FE0404B9B683F
:103C500003F47013BB613E4B9B6803F440037B612C
:103C6000BB699B0C3D4AD35CDBB2BB617B699B0D9E
:103C700001337B61364B9B6803F480333B613B69C6
:103C8000002B09D1BB69334A02FB03F27B69B2FB0B
:103C9000F3F27B681A6019E0BB692F4A02FB03F25A
:103CA0007B69B2FBF3F27B681A600FE0284B5B681C
:103CB00003F460435B0BBB60BB6801334FF400420D
:103CC00002FA03F31A467B681A6000BF204B9B6818
:103CD00003F0F003FB61FB691B09FB61204AFB69F0
:103CE00013441B78DBB2FB607B681A68FB68DA4020
:103CF0007B685A60164B9B6803F4E063FB61FB69C9
:103D00001B0AFB61164AFB6913441B78DBB2FB609C
:103D10007B685A68FB68DA407B689A600C4B9B684A
:103D200003F46053FB61FB69DB0AFB610C4AFB692E
:103D300013441B78DBB2FB607B685A68FB68DA408F
:103D40007B68DA6000BF2437BD4680BC704700BF87
:103D5000003802400024F40000127A00D40400204D
:103D6000E004002080B483B000AF78600B46FB70A5
:103D7000FB78002B06D00949084BDA697B681343AE
:103D8000CB6106E00549054BDA697B68DB431340EC
:103D9000CB6100BF0C37BD4680BC70470038024085
:103DA00080B483B000AF78600B46FB70FB78002BCB
:103DB00006D00949084B1A6A7B6813430B6206E078
:103DC0000549054B1A6A7B68DB4313400B6200BF51
:103DD0000C37BD4680BC70470038024080B483B0C9
:103DE00000AF78600B46FB70FB78002B06D00949CA
:103DF000084B5A6A7B6813434B6206E00549054B42
:103E00005A6A7B68DB4313404B6200BF0C37BD46E8
:103E100080BC70470038024080B483B000AF786047
:103E20000B46FB70FB78002B06D00949084B5A69FA
:103E30007B6813434B6106E00549054B5A697B6873
:103E4000DB4313404B6100BF0C37BD4680BC70475D
:103E50000038024080B483B000AF78600B46FB703E
:103E6000FB78002B06D00949084B9A697B681343FD
:103E70008B6106E00549054B9A697B68DB4313407B
:103E80008B6100BF0C37BD4680BC704700380240D4
:103E900080B487B000AF0346FB710023FB600023B2
:103EA0007B610023FB74FB795B09DBB2FB60FB6881
:103EB000012B03D10E4B1B687B6102E00C4B5B6B4B
:103EC0007B61FB7903F01F03FB607A69FB6822FAD0
:103ED00003F303F00103002B02D00123FB7401E084
:103EE0000023FB74FB7C18461C37BD4680BC704722
:103EF0000038024080B483B000AF0346FB7108492C
:103F000097F907305B09FA7902F01F02012000FAE5
:103F100002F241F8232000BF0C37BD4680BC704739
:103F200000E100E080B483B000AF0346FB710949B3
:103F300097F907305B09FA7902F01F02012000FAB5
:103F400002F2203341F8232000BF0C37BD4680BC6D
:103F5000704700BF00E100E080B582B000AF1720DD
:103F600000F0FCF803467B607B68002B02D0172032
:103F7000FFF7D8FF7B6818460837BD4680BD00BFF5
:103F800080B582B000AF78607B68002B02D017202C
:103F9000FFF7B0FF00BF0837BD4680BD80B485B0D5
:103FA00000AF78600023FB60094B5B68FB60FB6837
:103FB00023F44033FB607B681B68FA681343FB60A3
:103FC000034AFB68536000BF1437BD4680BC70478E
:103FD0000027014080B483B000AF03463960FB7115
:103FE00097F90730002B0BDA0D49FB7903F00F032B
:103FF000043B3A68D2B21201D2B20B441A7609E0FD
:10400000084997F907303A68D2B21201D2B20B448C
:1040100083F8002300BF0C37BD4680BC704700BF4B
:1040200000ED00E000E100E080B582B000AF786014
:104030007B68013BB3F1807F01D301230FE00A4A83
:104040007B68013B53600F214FF0FF30FFF7C2FF49
:10405000054B00229A60044B07221A600023184681
:104060000837BD4680BD00BF10E000E080B400AF5F
:104070004FF0FF331846BD4680BC704780B400AF98
:10408000024B1B681846BD4680BC70473823002091
:1040900080B500AF0A4B1B680A4AA2FB03239B09A9
:1040A0001846FFF7C1FF0346002B00D0FEE70521AD
:1040B0004FF0FF30FFF78EFF0023184680BD00BF92
:1040C000F0040020D34D621080B582B000AF2023F1
:1040D0003B6000233B7108237B710023BB713B468F
:1040E0001846FDF7B1F9002318460837BD4680BDD4
:1040F00080B586B000AF20233B610223FB7507F13A
:1041000010031946144806F083FA05210120FDF733
:1041100059F92023BB6000233B7308237B730123E1
:10412000BB7307F108031846FDF78EF94FF4407092
:1041300006F0C8F917233B710F237B710023BB7175
:104140000123FB713B1D184606F0CEF900231846EB
:104150001837BD4680BD00BF0004024080B485B062
:1041600000AF78600023FB730023BB60094B1A6823
:104170007B681340BB60BB68002B02D00123FB733C
:1041800001E00023FB73FB7B18461437BD4680BC5F
:10419000704700BF0004014080B586B000AFFFF754
:1041A000F7FB0120FFF722FCFFF732FC0346FB750B
:1041B000FB7D002B2DD00120FDF7E2F90120FDF75A
:1041C000C3F90020FFF7A0FC0020FFF7D5FC4FF457
:1041D0008060FFF7B5FC00233B603B461846FFF7C5
:1041E000DDFE802210210120FFF73AFC0120FFF7BD
:1041F00051FC00BF3920FFF74BFE0346002BF9D0DE
:104200000320FFF757FC00BFFFF770FC0346082BA5
:10421000FAD13B1D1846FFF7CBFC01214FF480502B
:10422000FFF7BEFD01214FF48040FFF7D7FD0121CC
:104230001F20FFF797FD01210120FFF7B1FD0023AB
:1042400018461837BD4680BD80B400AF002318461D
:10425000BD4680BC704700BF80B588B000AF034644
:10426000FB80124806F03AF80023BB814FF48273BA
:10427000FB8100233B8200237B820023BB824FF41F
:104280000073FB82FB883B8300237B830723BB8374
:1042900007F10C031946054806F05AF801210348B6
:1042A00006F09AF800BF2037BD4680BD00300140BF
:1042B00080B588B000AF274806F010F80023BB8116
:1042C0004FF48273FB8100233B8200237B82002317
:1042D000BB824FF40073FB8210233B8300237B835C
:1042E0000723BB8307F10C0319461A4806F030F880
:1042F000A0237B6002233B720023BB7203237B72EB
:104300003B1D1946144806F083F940237B600123C6
:10431000FB723B1D1946104806F07AF910237B60AA
:1043200001233B7203237B723B1D19460A4806F0AA
:104330006FF90021074806F06FF80121054806F0E3
:104340004BF81021044806F01BFA002318462037CA
:10435000BD4680BD003001400000024080B588B0FD
:1043600000AF354805F0BAFF0023BB814FF48273DC
:10437000FB8100233B8202237B820123BB824FF41B
:104380000073FB8230233B8300237B830723BB83A3
:1043900007F10C031946284805F0DAFF4FF42043D3
:1043A0007B6002233B720023BB7203237B723B1DA5
:1043B0001946224806F02CF94FF480437B60012314
:1043C000FB723B1D19461D4806F022F94FF480533D
:1043D0007B6001233B7203237B723B1D1946174808
:1043E00006F016F90021144806F016F801211248CB
:1043F00005F0F2FF4FF48051104806F0C1F94FF478
:1044000000637B6001233B7203237B723B1D1946D3
:104410000A4806F0FDF84FF480637B6001233B728D
:1044200003237B723B1D1946044806F0F1F8002374
:1044300018462037BD4680BD0038004000040240C9
:1044400080B582B000AF01211F20FFF78BFC012156
:104450000120FFF7A5FC4FF6FF733B6003233B7180
:104460003B461946214806F0D3F83B4619462048FA
:1044700006F0CEF83B4619461E4806F0C9F83B4602
:1044800019461D4806F0C4F83B4619461B4806F07D
:10449000BFF804233B6000233B713B461946144898
:1044A00006F0B6F83F233B6000233B713B461946BC
:1044B000104806F0ADF83F233B6000233B713B46BC
:1044C00019460C4806F0A4F84FF470733B600123C2
:1044D0003B7103237B713B461946064806F098F86A
:1044E000002318460837BD4680BD00BF00000240CB
:1044F0000004024000080240000C0240001002408C
:1045000080B582B000AF01233B6001233B710323E0
:104510007B713B4619460D4806F07AF801210B489D
:1045200006F03CF901233B6003233B7103237B71BD
:104530003B461946054806F06BF84FF4FA6005F063
:10454000AFFE00BF0837BD4680BD00BF000002407F
:1045500080B588B000AF78607B68002B2CD0012339
:10456000BB6100233B7707F118031946214806F089
:104570004FF800210020FCF725FF01233B610023B9
:104580003B7508237B750123BB7507F110031846A3
:10459000FCF75AFF4FF4407005F094FF06233B737D
:1045A0000F237B730023BB730123FB7307F10C0301
:1045B000184605F099FF18E00123BB6103233B7700
:1045C00003237B7707F1180319460A4806F020F801
:1045D00001233B6100233B7508237B750023BB75DA
:1045E00007F110031846FCF72FFF00BF2037BD4628
:1045F00080BD00BF0000024080B584B000AF03461C
:10460000FB800123FB600421064806F09DF8034669
:10461000002B01D00023FB60FB6818461037BD4615
:1046200080BD00BF0004024080B584B000AF0346E7
:10463000FB800123FB60FB881946064806F084F8DE
:104640000346002B01D00023FB60FB68184610379F
:10465000BD4680BD0008024080B582B000AF034671
:10466000FB71FB79042B29D801A252F823F000BF7B
:10467000854600088F46000899460008A5460008B0
:10468000B14600084021104806F088F817E0802164
:104690000D4806F083F812E04FF480710A4806F0E6
:1046A0007DF80CE04FF40071074806F077F806E05B
:1046B0004FF47071044806F071F800E000BF00BFCD
:1046C0000837BD4680BD00BF0008024080B582B0FB
:1046D00000AF0346FB71FB79042B29D801A252F8E5
:1046E00023F000BFF9460008034700080D47000803
:1046F00019470008254700084021104806F040F8F7
:1047000017E080210D4806F03BF812E04FF480716D
:104710000A4806F035F80CE04FF40071074806F03F
:104720002FF806E04FF47071044806F029F800E015
:1047300000BF00BF0837BD4680BD00BF0008024073
:1047400080B500AFFFF728FDFFF77AFEFFF7A0FC6A
:10475000FFF7CEFCFFF778FDFFF788FC0023184633
:1047600080BD00BF80B500AFFFF7A2FDFFF7F6FDEB
:104770004FF40061044806F011F84FF480610248DC
:1047800006F00CF800BF80BD0004024080B586B082
:1047900000AF0346FB8000237B610423FB720023F0
:1047A0007B827A4B002283F86C20784B00225A7768
:1047B000764B00221A67754B002283F85920734B01
:1047C00000225A67714B002283F86D206F4B002244
:1047D0009A676E4B0022DA6700F0FCF802466B4BDA
:1047E0001A606A4B1B686A4A934202D04FF0FF334B
:1047F000C7E0002000F0BEFE07F10B0301220021FC
:10480000242000F037FB1E2000F01EFC03467B82B4
:104810007B8A1B0A9BB2DAB25C4B9A73FB8803F06B
:104820000803002B05D0042000F00EFC0246574B75
:104830005A67564B5B6FDBB2002B09D00223BB7269
:1048400007F10A03012212212D2000F013FB02E0E0
:104850004E4B00225A67062000F0F6FB02464B4BF7
:104860005A60072000F0F0FB0246484B9A60FB8834
:1048700003F00203002B06D01C2000F0E5FB0246EB
:10488000424B9A6102E0414B00229A61FB8803F09F
:104890000103002B12D07B8ADBB203F01F03DAB2D4
:1048A0003A4B1A77394B1B7F002B0ED1394B1B78B3
:1048B00003F01F03DAB2354B1A7706E0354B1B784D
:1048C00003F01F03DAB2314B1A77FB8803F00403BD
:1048D000002B15D000237B610EE07B691033184656
:1048E00000F0B2FB0146294A7B6908339B00134460
:1048F00059607B6901337B617B690B2BEDDD0FE038
:1049000000237B6109E0214A7B6908339B00134443
:1049100000225A607B6901337B617B690B2BF2DDDE
:10492000FB8803F40063002B02D000F017FC0FE0BB
:104930000521362000F016FB03463B823B8A23F418
:1049400000733B823B8A1A460521362000F022FB89
:10495000012000F00FFE0021042000F0E1FA0246E1
:104960000A4B1A620021262000F0DAFAF860FB6890
:1049700043F4A023FB60FA680021262000F01AFB14
:10498000002318461837BD4680BD00BF300B0020FD
:104990003001CADE76EA000880B400AF024B5B6FDC
:1049A0001846BD4680BC7047300B002080B400AF75
:1049B000024B5B681846BD4680BC7047300B002038
:1049C00080B400AF024B9B681846BD4680BC704760
:1049D000300B002080B500AF0021002000F0A0FACD
:1049E0000346184680BD00BF80B582B000AF786036
:1049F0007B6801220B212A2000F03CFA7B685B686F
:104A00001A4600211E2000F0D5FA00BF0837BD4627
:104A100080BD00BF80B483B000AF03460A46FB717F
:104A20001346BB71FB795A1EBB790749CB5C5B000F
:104A30001344064A08339B0013445B6818460C373E
:104A4000BD4680BC704700BF38EA0008300B00202C
:104A500080B588B000AF78600B46FB700023FB7711
:104A60000023BB777B681B78FB767B685B791A46F3
:104A7000BA4B33F81230BB837B685B78013BB84A92
:104A80001367B74B1B6FBB76FB7E042B02D0FB7EFC
:104A9000072B01D1012300E000237B767B681A7885
:104AA000AF4B1A737B68DB79002B09D1AC4B1B6AC7
:104AB00043F48003AA4A1362BB8BDB08BB8305E087
:104AC000A74B1B6A23F48003A54A13627B681A7AFA
:104AD000A34B5A73A24B1A6A7B681B7A1B0403F41C
:104AE000403313439E4A13629D4B1B6A1A460021B2
:104AF000042000F05FFABB8B1A4642F604012E2018
:104B000000F048FABB7E184600F008FBFB7E954A91
:104B1000D35C1A4613469B001344934A1344052260
:104B200007212B2000F0A6F9904B01220E212B200B
:104B300000F0A0F97B7E8E4A134401220B2128202D
:104B400000F098F9FB7E874AD35C1A46894B53F8EC
:104B500022301A460C21282000F02CFA7B68DB79E1
:104B600018467B689B791946834A43000B4432F808
:104B700013301A460221272000F00CFABB7E7F4A30
:104B800032F813301A460421272000F003FA7B681C
:104B9000DB79002B05D164220621272000F0FAF9E9
:104BA00020E07B689B78042B0ED11023FB7310222E
:104BB0000621272000F0EEF907F10F03012226213C
:104BC000272000F057F90DE02823BB73202206218F
:104BD000272000F0DFF907F10E030122262127200C
:104BE00000F048F9BB7E7A68D2781146644A9B008F
:104BF0000B4452F823301A460821272000F0DAF936
:104C00007B685B899BB241F24102934207D07B688B
:104C10005B899BB21A462021272000F0BBF97B68F4
:104C20005B899BB2002B05D141F241022021272054
:104C300000F0B0F9534B1B681A460C21232000F0FA
:104C4000B9F9BB7E4F4A5B0013449B881A46042186
:104C5000232000F09FF97B689B79002B0DD07B68A7
:104C6000DB791A46484B134401220021212000F031
:104C700001F90323FB770123BB77FB7E03F00F02CF
:104C8000FB7E1B01DBB21A437B685B789B0403F459
:104C900040231A43FB7F1B0503F440131A43BB7FD9
:104CA0005B0403F400331A437B681B799B0503F014
:104CB000F86313437A685279D20613437B617A69A9
:104CC00000211F2000F076F97B689A787B685B787A
:104CD0001343DBB21B043B617B68DB795B031A4641
:104CE0003B69134343F400431D4A13611C4B1B698A
:104CF0001A460021082000F05DF9FB7803F001035B
:104D0000002B04D0164B1B7F184600F04FFEFB789B
:104D100003F00203002B1BD0114B9A69BB7E1B01D1
:104D200022FA03F35B089BB2C3F30E039BB218464F
:104D300000F02CF80A4B9A69BB7E1B0122FA03F3A0
:104D40005B089BB2C3F30E039BB2184600F034F825
:104D5000002318462037BD4680BD00BFB8EA0008D2
:104D6000300B002038EA000858EA000876EA00080C
:104D700078EA000840EA000888EA000894EA000897
:104D800098EA00087CEA000884EA000880B582B04E
:104D900000AF0346FB80074AFB889382054B9B8A42
:104DA0001A4641F604012E2000F0F4F800BF08373F
:104DB000BD4680BD300B002080B582B000AF0346F9
:104DC000FB80074AFB88D382054BDB8A1A46002109
:104DD000182000F0DFF800BF0837BD4680BD00BFD7
:104DE000300B002080B483B000AF0346FB71064B4C
:104DF0009A69FB79013B1B0122FA03F39BB2184627
:104E00000C37BD4680BC7047300B002008B5131826
:104E1000B3F5806F07DC0B461146821E092000F0B7
:104E200029F8002008BD4FF0FF3008BD08B5054B3C
:104E30001A69024342EA81520820002100F0BAF8C0
:104E4000002008BD300B002010B4144603460A466B
:104E50001120214610BC00F039B800BF03460522DE
:104E60000021172000F032B803460522002115204A
:104E700000F02CB800B583B0E1B160F03F007F29AD
:104E80008DF804000DD961F07F00C9098DF8050087
:104E90008DF80610032001A9FCF762FF03B05DF84E
:104EA00004FB8DF80510022001A9FCF759FF03B09F
:104EB0005DF804FB60F07F008DF8040001A901207B
:104EC000FCF74EFF03B05DF804FB00BF00B583B0F4
:104ED000E1B140F040007F298DF804000DD961F068
:104EE0007F00C9098DF805008DF80610032001A97F
:104EF000FCF770FF03B05DF804FB8DF8051002208D
:104F000001A9FCF767FF03B05DF804FB8DF804000E
:104F100001A90120FCF75EFF03B05DF804FB00BFB0
:104F200000B583B089B280B201AB0422FFF7CEFF97
:104F300020B14FF0FF3003B05DF804FB9DF807008F
:104F40009DF806309DF80520A0F5807003EB002049
:104F50009DF8043002EB002003EB002003B05DF865
:104F600004FB00BF00B583B089B280B201AB02225E
:104F7000FFF7ACFF20B14FF6FF7003B05DF804FB04
:104F80009DF805009DF8043003EB002080B203B0CB
:104F90005DF804FB30B5144683B0150A89B201AB45
:104FA000022280B28DF804408DF80550FFF762FFB1
:104FB00003B030BD70B5144682B04FEA122E160C05
:104FC000150E89B201AB042280B28DF804408DF831
:104FD00005E08DF806608DF80750FFF74BFF02B033
:104FE00070BD00BF10B5044600210420FFF798FFF4
:104FF00054B9094B0340094C1A462362002104208E
:10500000BDE81040FFF7D6BF054A04F4FF7343F034
:10501000010302401343EEE7FEFF47F0300B002090
:1050200001FE47F0024602210320FFF7B3BF00BF95
:105030000346082200210120FFF71CBF0346082277
:1050400000210120FFF742BF30B583B002AC04F865
:10505000040D050A2346022204212D208DF8055057
:10506000FFF708FF03252346012206212D208DF896
:105070000450FFF7FFFE23460122002406212D20C5
:105080008DF80440FFF7F6FE0A212D20FFF748FFB8
:1050900003B030BD30B583B002AC002304F8043D4A
:1050A00023460225012202212C20FFF7E3FE23469E
:1050B000294601222C208DF80450FFF7DBFE03B0B7
:1050C00030BD00BFFFF7E6BF10B50C4682B0024608
:1050D00000212C20FFF75EFF02AB03F8044D0122F4
:1050E00006212C20FFF7C6FE02B010BD10B5044605
:1050F00004213620FFF714FF3CB9BDE8104020F42E
:10510000006204213620FFF755BF40F400620421FD
:105110003620BDE81040FFF74DBF00BF10B5044674
:1051200082B06D2202AB03F8012D40F60601012288
:105130002E20FFF79FFE44B941F2076241F60601B7
:105140002E20FFF727FF02B010BD40F2076241F6A4
:1051500006012E20FFF71EFF02B010BD30B583B050
:1051600002AB012403F8044D03250222002136205E
:105170008DF80550FFF77EFE4FF4004206212D20EA
:10518000FFF708FF4FF47A7005F08AF8204600F028
:10519000F1F9002003B030BD70B5044682B002AB17
:1051A000012503F8045D03260222002136208DF834
:1051B0000560FFF75FFE620102F060022A431221E0
:1051C0002D20FFF7E7FE284600F0D4F902B070BDAD
:1051D00010B5002104461A20FFF7A2FE000D0005BD
:1051E000C4F31302024300211A20BDE81040FFF768
:1051F000E1BE00BF014B9867D9677047300B0020B4
:105200002DE97041A64C0023627F83B019460F2020
:1052100084F85E2084F85830FFF782FE4205054688
:10522000606541D5667F002E78D06B043ED515F4BD
:10523000801640F08E8031461020FFF793FE994B88
:105240008046314602221120FFF740FE637B002B8F
:1052500000F0BD80C8F3090815F00801A4F85A80D1
:105260008F4A08D092F85C3003F0200303F0FF006F
:10527000002B00F0DF8084F859100026617F0223A4
:1052800084F85830DFF81882002940F0A38005F434
:10529000DE4232430F20FFF78DFED8F87C305BB33F
:1052A00008F15400984727E0420428D415F0800103
:1052B00073D115F400325DD17B4A2A40E2B100215E
:1052C0000F20FFF777FE236A0022980084F86D20F4
:1052D00040F1D28000F014FBE90400F1A7802A0419
:1052E00000F1CD80EB0340F1CE80092384F85830E3
:1052F000E36F0BB16D48984703B0BDE87081236A36
:10530000990047D500F0FCFAE36F0021032284F8EE
:105310006D1084F85820002BECD1EDE700F46063A9
:10532000B3F5606F81D000F005FA00F0E9FA236A66
:1053300005F0F8089B0000F19880E36F032284F8E1
:10534000582013B104F154009847280625D4454647
:10535000B2E700F0EFF900F0D3FA236A50489D005D
:105360005DD4C36F032280F85820002BC4D0543082
:105370009847C1E70F20FFF71DFEE36F042284F872
:1053800058200BB149489847002384F86D3003B08A
:10539000BDE8708100F0CEF9B4E7F82200210F20BB
:1053A000FFF708FE94F859203D4B4AB15A7F00217F
:1053B00083F8591022B993F86D300BB100F0BAF9A7
:1053C000A36F012284F85820002B93D194E708F0B2
:1053D0007F0841E74FF0010E032172460DF10603ED
:1053E0000F208DF807E0FFF771FD9DF8061081EAA8
:1053F000410111F0800131D0216A11F0005127D014
:10540000E36F0BB12948984700F08CF9C0B100F068
:1054100091F900F075FA236A9C007FF56DAF4FF4A7
:10542000807200210D20FFF7B5FD65E7082384F8A1
:1054300058305DE782F8590082F86D0008261DE7B4
:105440000DF10703012203210D20FFF713FD53E7A0
:105450004FF480720D20FFF79DFDD1E705F4C042A7
:1054600032430F20FFF7A6FDC6E731464FF48072A6
:105470000D20FFF78FFD68E700F05CF92AE70323B2
:1054800084F8583034E76E0103D50A2384F8583085
:105490002EE7AD02F3D50B2384F8583028E700BF80
:1054A000300B00208C0B002000902724840B002060
:1054B00070B582B001AD10F0010604462B464FF0E6
:1054C000020225D131462620FFF700FD9DF8053068
:1054D0003146022223F0140626202B468DF8056063
:1054E000FFF7C8FCA30711D50F242B4601222A2160
:1054F00036208DF80440FFF7BDFC00242B46012226
:105500002A2136208DF80440FFF7B4FC02B070BDAC
:1055100000212620FFF7DAFC9DF8051002AB21F0F0
:105520003C01012241F0140103F8031D262011461D
:10553000FFF7A0FC2B46012202213620FFF7C6FC14
:105540009DF804602B4666F07B060122022136207E
:105550008DF80460FFF78EFC01264FF0100E2B46ED
:105560000222282136208DF804E08DF80560FFF72F
:1055700081FCB7E710B5044682B001AB02220021DE
:105580003620FFF7A3FC0D2C0ED8DFE804F0252E03
:10559000380D0D0D0D41500D0D075D1C9DF80530AA
:1055A00043F002038DF8053001AB012200213620C3
:1055B000FFF760FC012211460DF105033620FFF7CD
:1055C00059FC02B010BD9DF8043023F0300343F0C5
:1055D00020038DF80430E7E79DF8043023F003033F
:1055E00043F001038DF80430DEE79DF8053000221A
:1055F00023F001038DF805308DF80420D4E79DF8E1
:10560000043023F0030343F002038DF80430CBE7AA
:105610009DF804309DF8052023F04C0343F0480327
:1056200062F07F028DF804308DF80520BCE79DF80C
:1056300004209DF8053022F04C0203F07F038DF822
:1056400004208DF80530AFE79DF8053023F0020304
:105650008DF80530A8E700BF08B50020FFF78AFFE6
:10566000BDE80840002204213620FFF793BC00BFAC
:10567000024601210A20FFF79DBC00BF70B500F073
:10568000020282B0044632BB02F0FF030DF10706AE
:1056900014F0010412D043F0060401223346002125
:1056A0000D208DF80740FFF7E5FB03210F20FFF7E2
:1056B00059FC10F481601FD102B070BD43F00205A7
:1056C0000122334621460D208DF80750FFF7D2FB0B
:1056D000204602B070BD02AE802306F8013D33467D
:1056E000012200210D20FFF7C5FB0D4A01219DF885
:1056F000073082F86D10CBE73346012200214024A9
:105700000D208DF80740FFF7B5FB0020FFF7EEFCFA
:10571000034B002283F86D204FF0FF30CCE700BF31
:10572000300B002008B502210F20FFF71BFC00F012
:10573000100008BD70B582B0402302AC00210E20DD
:1057400004F8013DFFF7ECFB0646FEF705FC0546B5
:10575000002211460E20FFF72DFC234601220021D6
:105760000D20FFF787FB0A4A00210F20FFF722FCDC
:1057700000F012F8324600210E20FFF71BFC2846ED
:10578000FEF7FEFB034B002283F86D2002B070BDD4
:10579000F8FF2724300B002000B583B00DF106037D
:1057A000012203210F20FFF791FB9DF8063083EAC9
:1057B00043031B0607D502AB012203F8012D032189
:1057C0000D20FFF757FB03B05DF804FB30B504462E
:1057D00083B000258DF80750FFF7DEFFACB14FF422
:1057E000407229460D20FFF7D5FB0DF1070301227A
:1057F00003210F20FFF76AFB9DF8073003F0080331
:1058000003F0FF0053B903B030BD4FF4807221465E
:105810000D20FFF7BFFB204603B030BDFFF78AFF26
:1058200029464FF480720D20FFF7B4FB4FF0FF3094
:10583000E9E700BF70B5044682B00DF1070301220D
:1058400003210420FFF742FB9CB9124E9DF807404C
:10585000326A0DF1070322F0805524F01004012272
:105860000321042035628DF80740FFF703FB02B0E7
:1058700070BD084E224600210C20FFF78BFB9DF8DF
:105880000740326A0DF1070342F0805544F01004DE
:10589000E5E700BF300B002070B50E460546FEF769
:1058A0005BFB002104460E20FFF73AFB56B920EAC5
:1058B000050200210E20FFF77DFB2046BDE8704069
:1058C000FEF75EBB40EA0502F3E700BF30B50546D0
:1058D00083B002AC022304F8013D234601220021DB
:1058E0002F20FFF7C7FA45B1012523462A4600219C
:1058F0002F208DF80750FFF7BDFA03B030BD00BF71
:1059000010B582B002ACE02304F8013D2346012229
:1059100003213620FFF7AEFA23460122F0240321AB
:1059200036208DF80740FFF7A5FA02B010BD00BF82
:1059300070B582B002AC002504F8045DFFF78CFE60
:105940002A4629462C20FFF725FB23460122062163
:105950002C20FFF78FFAFFF79DFB2346012203213E
:105960003620FFF7B3FA9DF8046023460122032195
:1059700006F00F0636208DF80460FFF77BFA4FF42F
:105980007A7004F08DFC9DF804202346032162F018
:105990000F04362001228DF80440FFF76BFA024B0A
:1059A00083F86D5002B070BD300B002010B5044676
:1059B00082B00DF1070301220E212B20FFF786FA9A
:1059C0009DF8072004F01F0422F01F0214430DF17C
:1059D000070301220E212B208DF80740FFF74AFA1A
:1059E00002B010BD80B400AF00BFBD4680BC7047A0
:1059F00080B48BB000AF78607B681B687B627B688B
:105A00005B683B627B689B68FB617B68DB68BB61B2
:105A10007B681B697B617B685B693B617B689B6919
:105A2000FB607B68DB69BB60FEE700BF80B400AF52
:105A30001EF0040F0CBFEFF30880EFF309808169BB
:105A4000004A1047F1590008FEE700BF80B400AFDC
:105A5000FEE700BF80B400AFFEE700BF80B400AF38
:105A6000FEE700BF80B400AF00BFBD4680BC7047FA
:105A700080B400AF00BFBD4680BC704780B400AFAB
:105A800000BFBD4680BC704780B400AF044B1B68AC
:105A90000133034A136000BFBD4680BC704700BF9E
:105AA0003823002080B500AF4FF40050FBF73EFDD7
:105AB00000BF80BD80B500AF03F026FB0120FBF7DF
:105AC00035FD00BF80BD00BF80B500AF03F024FBF3
:105AD0000820FBF72BFD00BF80BD00BF80B500AFE5
