:020000040800F2
:1000000000800020754F0008B5310008FD31000860
:100010001D320008253200082D32000800000000C3
:100020000000000000000000000000003532000861
:1000300041320008000000004D320008593200082B
:10004000B94F0008B94F0008B94F0008B94F000870
:10005000B94F0008B94F000889320008B94F0008AD
:10006000B13200089D320008B94F0008B94F0008AE
:10007000B94F0008B94F0008B94F0008B94F000840
:10008000B94F0008B94F0008C5320008B94F000841
:10009000B94F0008B94F0008B94F0008B94F000820
:1000A000B94F0008B94F0008B94F0008B94F000810
:1000B000B94F0008B94F0008B94F0008B94F000800
:1000C000B94F0008B94F0008B94F0008B94F0008F0
:1000D000B94F0008B94F0008B94F0008B94F0008E0
:1000E00075320008B94F0008B94F0008B94F000831
:1000F000B94F000800000000B94F0008B94F0008D0
:100100000000000000000000B94F0008B94F0008CF
:10011000B94F0008B94F0008B94F0008B94F00089F
:10012000B94F0008000000000000000000000000BF
:0C01300000000000000000005FF808F173
:1001400010B5054C237833B9044B13B10448AFF311
:1001500000800123237010BDD009002000000000A2
:10016000AC970008084B10B51BB108490848AFF31D
:1001700000800848036803B910BD074B002BFBD073
:10018000BDE81040184700BF00000000D40900205F
:10019000AC970008CC0900200000000081F000416D
:1001A00002E000BF83F0004330B54FEA41044FEA5C
:1001B000430594EA050F08BF90EA020F1FBF54EAF7
:1001C000000C55EA020C7FEA645C7FEA655C00F093
:1001D000E2804FEA5454D4EB5555B8BF6D420CDD64
:1001E0002C4480EA020281EA030382EA000083EAE7
:1001F000010180EA020281EA0303362D88BF30BD87
:1002000011F0004F4FEA01314FF4801C4CEA1131DC
:1002100002D0404261EB410113F0004F4FEA03333B
:100220004CEA133302D0524263EB430394EA050FC6
:1002300000F0A780A4F10104D5F1200E0DDB02FA35
:100240000EFC22FA05F2801841F1000103FA0EF2C9
:10025000801843FA05F359410EE0A5F120050EF18F
:10026000200E012A03FA0EFC28BF4CF0020C43FAC0
:1002700005F3C01851EBE37101F0004507D54FF0CD
:10028000000EDCF1000C7EEB00006EEB0101B1F51D
:10029000801F1BD3B1F5001F0CD349085FEA300063
:1002A0004FEA3C0C04F101044FEA445212F5800F6E
:1002B00080F09A80BCF1004F08BF5FEA500C50F10B
:1002C000000041EB045141EA050130BD5FEA4C0CEE
:1002D000404141EB010111F4801FA4F10104E9D177
:1002E00091F0000F04BF01460020B1FA81F308BF6E
:1002F0002033A3F10B03B3F120020CDA0C3208DD3A
:1003000002F1140CC2F10C0201FA0CF021FA02F114
:100310000CE002F11402D8BFC2F1200C01FA02F184
:1003200020FA0CFCDCBF41EA0C019040E41AA2BFA9
:1003300001EB0451294330BD6FEA04041F3C1CDA71
:100340000C340EDC04F11404C4F1200220FA04F091
:1003500001FA02F340EA030021FA04F345EA03013B
:1003600030BDC4F10C04C4F1200220FA02F001FAFD
:1003700004F340EA0300294630BD21FA04F029467F
:1003800030BD94F0000F83F4801306BF81F4801118
:100390000134013D4EE77FEA645C18BF7FEA655C8B
:1003A00029D094EA050F08BF90EA020F05D054EA5D
:1003B000000C04BF1946104630BD91EA030F1EBF62
:1003C0000021002030BD5FEA545C05D14000494166
:1003D00028BF41F0004130BD14F580043CBF01F559
:1003E000801130BD01F0004545F0FE4141F470013F
:1003F0004FF0000030BD7FEA645C1ABF194610461A
:100400007FEA655C1CBF0B46024650EA013406BF1A
:1004100052EA033591EA030F41F4002130BD00BFD9
:1004200090F0000F04BF0021704730B54FF4806496
:1004300004F132044FF000054FF0000150E700BF17
:1004400090F0000F04BF0021704730B54FF4806476
:1004500004F1320410F0004548BF40424FF0000163
:100460003EE700BF42004FEAE2014FEA31014FEAA6
:1004700002701FBF12F07F4393F07F4F81F06051F5
:10048000704792F0000F14BF93F07F4F704730B564
:100490004FF4607401F0004521F0004120E700BFF7
:1004A00050EA010208BF704730B54FF000050AE07E
:1004B00050EA010208BF704730B511F0004502D57F
:1004C000404261EB41014FF4806404F132045FEA81
:1004D000915C3FF4DCAE4FF003025FEADC0C18BF26
:1004E00003325FEADC0C18BF033202EBDC02C2F11C
:1004F000200300FA03FC20FA02F001FA03FE40EAAE
:100500000E0021FA02F11444C1E600BF70B54FF0AD
:10051000FF0C4CF4E06C1CEA11541DBF1CEA13558F
:1005200094EA0C0F95EA0C0F00F0DEF82C4481EAF7
:10053000030621EA4C5123EA4C5350EA013518BF17
:1005400052EA033541F4801143F4801338D0A0FB04
:1005500002CE4FF00005E1FB02E506F00042E0FBB1
:1005600003E54FF00006E1FB03569CF0000F18BFB7
:100570004EF0010EA4F1FF04B6F5007F64F540745F
:1005800004D25FEA4E0E6D4146EB060642EAC621F2
:1005900041EA55514FEAC52040EA5E504FEACE2E5F
:1005A000B4F1FD0C88BFBCF5E06F1ED8BEF1004F62
:1005B00008BF5FEA500E50F1000041EB045170BDDE
:1005C00006F0004646EA010140EA020081EA030122
:1005D000B4EB5C04C2BFD4EB0C0541EA045170BD1E
:1005E00041F480114FF0000E013C00F3AB8014F198
:1005F000360FDEBF002001F0004170BDC4F10004E1
:10060000203C35DA0C341BDC04F11404C4F1200561
:1006100000FA05F320FA04F001FA05F240EA0200BC
:1006200001F0004221F0004110EBD37021FA04F6F2
:1006300042EB06015EEA430E08BF20EAD37070BDAC
:10064000C4F10C04C4F1200500FA04F320FA05F00B
:1006500001FA04F240EA020001F0004110EBD3700D
:1006600041F100015EEA430E08BF20EAD37070BD7D
:10067000C4F1200500FA05F24EEA020E20FA04F356
:1006800001FA05F243EA020321FA04F001F0004105
:1006900021FA04F220EA020000EBD3705EEA430E76
:1006A00008BF20EAD37070BD94F0000F0FD101F0A5
:1006B0000046400041EB010111F4801F08BF013CDE
:1006C000F7D041EA060195F0000F18BF704703F01C
:1006D0000046520043EB030313F4801F08BF013DA3
:1006E000F7D043EA0603704794EA0C0F0CEA13555F
:1006F00018BF95EA0C0F0CD050EA410618BF52EA19
:100700004306D1D181EA030101F000414FF000001E
:1007100070BD50EA410606BF1046194652EA43062C
:1007200019D094EA0C0F02D150EA013613D195EAA0
:100730000C0F05D152EA03361CBF104619460AD1E8
:1007400081EA030101F0004141F0FE4141F47001F2
:100750004FF0000070BD41F0FE4141F4780170BDE2
:1007600070B54FF0FF0C4CF4E06C1CEA11541DBF47
:100770001CEA135594EA0C0F95EA0C0F00F0A7F849
:10078000A4EB050481EA030E52EA03354FEA013176
:1007900000F088804FEA03334FF0805545EA131389
:1007A00043EA12634FEA022245EA111545EA106551
:1007B0004FEA00260EF000419D4208BF964244F1E8
:1007C000FD0404F5407402D25B084FEA3202B61A07
:1007D00065EB03055B084FEA32024FF480104FF4DB
:1007E000002CB6EB020E75EB030E22BFB61A75464F
:1007F00040EA0C005B084FEA3202B6EB020E75EBE2
:10080000030E22BFB61A754640EA5C005B084FEA49
:100810003202B6EB020E75EB030E22BFB61A754616
:1008200040EA9C005B084FEA3202B6EB020E75EB21
:10083000030E22BFB61A754640EADC0055EA060EE2
:1008400018D04FEA051545EA16754FEA06164FEA25
:10085000C30343EA52734FEAC2025FEA1C1CC0D1D1
:1008600011F4801F0BD141EA00014FF000004FF05E
:10087000004CB6E711F4801F04BF01430020B4F11F
:10088000FD0C88BFBCF5E06F3FF6AFAEB5EB030CD7
:1008900004BFB6EB020C5FEA500C50F1000041EBD4
:1008A000045170BD0EF0004E4EEA113114EB5C04A1
:1008B000C2BFD4EB0C0541EA045170BD41F4801174
:1008C0004FF0000E013C90E645EA060E8DE60CEA7C
:1008D000135594EA0C0F08BF95EA0C0F3FF43BAF99
:1008E00094EA0C0F0AD150EA01347FF434AF95EA50
:1008F0000C0F7FF425AF104619462CE795EA0C0F34
:1009000006D152EA03353FF4FDAE1046194622E700
:1009100050EA410618BF52EA43067FF4C5AE50EADA
:1009200041047FF40DAF52EA43057FF4EBAE12E7CA
:100930004FF0FF3C06E000BF4FF0010C02E000BFAB
:100940004FF0010C4DF804CD4FEA410C7FEA6C5C8E
:100950004FEA430C18BF7FEA6C5C1BD001B050EA31
:10096000410C0CBF52EA430C91EA030F02BF90EA1C
:10097000020F0020704710F1000F91EA030F58BFDB
:10098000994208BF90422CBFD8176FEAE37040F03D
:10099000010070474FEA410C7FEA6C5C02D150EADB
:1009A000013C07D14FEA430C7FEA6C5CD6D152EA96
:1009B000033CD3D05DF8040B704700BF844610465B
:1009C00062468C461946634600E000BF01B5FFF75A
:1009D000B7FF002848BF10F1000F01BD4DF808ED2A
:1009E000FFF7F4FF0CBF012000205DF808FB00BFFB
:1009F0004DF808EDFFF7EAFF34BF012000205DF855
:100A000008FB00BF4DF808EDFFF7E0FF94BF0120A1
:100A100000205DF808FB00BF4DF808EDFFF7CEFFA2
:100A200094BF012000205DF808FB00BF4DF808EDE1
:100A3000FFF7C4FF34BF012000205DF808FB00BFB2
:100A40004FEA410212F5001215D211D56FF47873F6
:100A5000B3EB625212D94FEAC12343F0004343EA99
:100A6000505311F0004F23FA02F018BF4042704774
:100A70004FF00000704750EA013005D111F00040FE
:100A800008BF6FF0004070474FF00000704700BF94
:100A9000844641EA000313F0030349D1403A23D3CB
:100AA0000B6803604B6843608B688360CB68C360EE
:100AB0000B6903614B6943618B698361CB69C361D6
:100AC0000B6A03624B6A43628B6A8362CB6AC362BE
:100AD0000B6B03634B6B43638B6B8363CB6BC363A6
:100AE00040304031403ADBD230320BD30B680360E8
:100AF0004B6843608B688360CB68C36010301031F3
:100B0000103AF3D20C3205D351F8043B40F8043BC1
:100B1000043AF9D2043208D0D2071CBF11F8013BC5
:100B200000F8013B01D30B8803806046704700BF8B
:100B3000082A13D38B07B1D010F00303AED0C3F152
:100B40000403D21ADB071CBF11F8013B00F8013B7C
:100B5000A4D331F8023B20F8023B9FE7043AD9D3F3
:100B6000013A11F8013B00F8013BF9D20B78037010
:100B70004B7843708B788370604670474FEA410C26
:100B80007FEA6C5C02D150EA013C0AD14FEA430C87
:100B90007FEA6C5C02D152EA033C02D14FF00000C4
:100BA00070474FF00100704753B94AB9002908BF98
:100BB00000281CBF4FF0FF314FF0FF3000F082B92A
:100BC000ADF1080C6DE904CE00F006F8DDF804E0A4
:100BD000DDE9022304B070472DE9F04F8C460C4646
:100BE0000546099E002B4FD18A4217466BD9B2FAAF
:100BF00082FEBEF1000F0BD0CEF1200520FA05F5E4
:100C000001FA0EF345EA030C02FA0EF700FA0EF5AC
:100C1000390CBCFBF1F0BAB201FB10C300FB02F8C7
:100C20004FEA154C4CEA0344A04509D9E41900F1F8
:100C3000FF3380F02881A04540F2258102383C44F2
:100C4000C8EB0404B4FBF1F301FB134C03FB02F209
:100C5000ACB244EA0C418A4209D9C91903F1FF3404
:100C600080F00F818A4240F20C81023B39448A1A9B
:100C700043EA00400021002E63D022FA0EF2002346
:100C800086E80C00BDE8F08F8B4207D9002E56D0C5
:100C9000002186E811000846BDE8F08FB3FA83F121
:100CA000002940F09380A34202D3824200F2FE80EA
:100CB000851A64EB03039C460120002E41D086E890
:100CC0002010BDE8F08F12B90127B7FBF2F7B7FA91
:100CD00087FEBEF1000F36D1E41B4FEA17481FFA1A
:100CE00087F90121B4FBF8F308FB134409FB03F275
:100CF0004FEA154C4CEA0444A24207D9E41903F127
:100D0000FF3002D2A24200F2D3800346A41AB4FB01
:100D1000F8F008FB104809FB00F9ACB244EA0842BD
:100D2000914507D9D21900F1FF3402D2914500F262
:100D3000BA802046C9EB020240EA03409BE73146F5
:100D40003046BDE8F08F07FA0EF7CEF1200C24FAFA
:100D50000CF34FEA1748B3FBF8FA1FFA87F908FBC0
:100D60001A3520FA0CFC04FA0EF40AFB09FB4CEAD3
:100D7000040C4FEA1C4242EA05439B4500FA0EF57B
:100D80000AD9DB190AF1FF3280F08B809B4540F2D3
:100D90008880AAF1020A3B44CBEB0303B3FBF8F0D3
:100DA00008FB103300FB09F41FFA8CFC4CEA0343E8
:100DB0009C4207D9DB1900F1FF326ED29C426CD9FC
:100DC00002383B441C1B40EA0A418BE7C1F1200E6C
:100DD0008B4022FA0EFC4CEA030C24FA0EF74FEA81
:100DE0001C49B7FBF9FA1FFA8CF309FB1A7720FAB2
:100DF0000EF88C400AFB03F548EA04044FEA144855
:100E000048EA0747BD4202FA01F200FA01FB09D99C
:100E100017EB0C070AF1FF3041D2BD423FD9AAF1CE
:100E2000020A67447F1BB7FBF9F509FB157705FB41
:100E300003F3A4B244EA0747BB4208D917EB0C07F7
:100E400005F1FF3027D2BB4225D9023D674445EA70
:100E50000A40A0FB0289FF1A4F4545464C4614D371
:100E600029D066B3BBEB050367EB040707FA0EFE58
:100E7000CB40CF404EEA030386E888000021BDE85E
:100E8000F08F2346F3E61846DAE6B8EB020569EB85
:100E90000C040138E5E70546D9E7104692E782469B
:100EA000C0E7924678E702383A4443E7084604E749
:100EB000023B3C442AE7C345E7D33C46D1E73146F1
:100EC000BDE8F08F704700BF70B4840746D0541E51
:100ED000002A41D0CDB2034602E0621EE4B31446BC
:100EE00003F8015B9A07F8D1032C2ED9CDB245EA5D
:100EF00005250F2C45EA054519D9264603F11002B0
:100F0000103E0F2E42F8105C42F80C5C42F8085C70
:100F100042F8045C02F11002F2D8A4F1100222F0AF
:100F20000F0204F00F041032032C13440DD91E4697
:100F30002246043A032A46F8045BFAD8221F22F01C
:100F400003020432134404F003042CB1C9B21C445C
:100F500003F8011BA342FBD170BC70471446034643
:100F6000C2E700BF024B13B1024800F005B870475A
:100F700000000000850F0008002301461A461846AD
:100F800000F014B838B5074D074C2C1BA41005D041
:100F9000013C55F8043D9847002CF9D1BDE8384094
:100FA00008F00ABCD8970008D49700082DE9F0474C
:100FB000254C064625688846D5F84841924699460C
:100FC000C4B360681F2817DC411C76B104EB8003B2
:100FD000C3F888A0D4F88851012282401543022E1C
:100FE000C4F88851C3F808911ED0831C61600020AA
:100FF00044F82380BDE8F087144B03B34FF4C87066
:10100000AFF300800446D0B1D5F84831002784E81A
:1010100088003846C5F848410121C4F88871C4F8F1
:101020008C71002EE1D0D1E7D4F88C311A43C4F88A
:101030008C21DAE705F5A674C5F84841C1E74FF001
:10104000FF30BDE8F08700BFD49400080000000026
:1010500090B484B000AF03460A46FB711346BB71DF
:101060000023FB60BB7903F003039B000F2202FA0D
:1010700003F3FB601649BB799B08DBB21846144AA0
:10108000BB799B08DBB2023352F82320FB68DB43B9
:101090001A40831C41F823200D48BB799B08DBB222
:1010A0001C460B4ABB799B08DBB2023352F8232063
:1010B000F979BB7903F003039B0001FA03F31A43A8
:1010C000A31C40F8232000BF1037BD4690BC7047DA
:1010D0000000014080B485B000AF78600023FB6061
:1010E000344BFB607B689B79002B4FD03149314BEF
:1010F0001A687B681B68DB4313400B602D492D4B3E
:101100005A687B681B68DB4313404B607B681B7924
:101110001A46FB681344FB60FB68FA6811687A683A
:1011200012680A431A602349224B9A687B681B683D
:10113000DB4313408B601F491E4BDA687B681B68DA
:10114000DB431340CB607B685B79102B0ED11949D0
:10115000184B9A687B681B6813438B601549154BC5
:10116000DA687B681B681343CB601DE0114BFB60A2
:101170007B685B791A46FB681344FB60FB68FA687E
:1011800011687A6812680A431A600DE07B681B795F
:101190001A46FB681344FB60FB68FA6811687A68BA
:1011A0001268D2430A401A6000BF1437BD4680BCA3
:1011B000704700BF0004014080B483B000AF786086
:1011C000034A7B68536100BF0C37BD4680BC704743
:1011D0000004014080B485B000AF78600023FB605C
:1011E000094B1B68FB60FB6823F00103FB60FA6896
:1011F0007B681343FB60044AFB68136000BF14372D
:10120000BD4680BC704700BF003C024080B483B044
:1012100000AF0346FB71FB79002B06D0084A084B50
:101220001B6843F00203136005E0054A044B1B688A
:1012300023F00203136000BF0C37BD4680BC70472B
:10124000003C02402DE97043814690461E460C4604
:1012500001F09CF8164B10225A83B9F1000F0ED002
:10126000144D2146AE4604EB090211F8013BAB8157
:101270002C89E407FCD58A42BEF80C30F5D1B8F1D0
:10128000000F0DD00B4933460D4606EB080413F84A
:10129000012B8A810A89D207FCD5A342AA89F6D1FB
:1012A000034B10221A8301F085F80020BDE87083FB
:1012B00000000240003001402DE970438146904615
:1012C0001E460C4601F062F8174B10225A83B9F102
:1012D000000F0FD0154D2146AE4604EB090211F860
:1012E000013BAB812C89E407FCD5BEF80C30914260
:1012F0003370F4D1B8F1000F0ED00C4933460C46D0
:101300004FF00005B0448D810A89D207FCD5A2892F
:1013100003F8012B9845F6D1034B10221A8301F0F4
:1013200049F80020BDE87083000002400030014011
:101330002DE9784106461546002937D101284FD0BE
:1013400030480C464FF4006104F00EF94FF4805120
:101350002D4804F009F9002E36D0A046013D0024A6
:1013600015F8011F294803F09DFF0121274803F0CC
:10137000A7FF0028F9D00134244803F087FFB442C6
:10138000EED34FF400611F4804F0EEF84FF48051A3
:101390001D4804F0DBF8B8F1000F01D1BDE87881F9
:1013A0004FF4FA60BDE8784103F024BE4FF40061C9
:1013B000144804F0CBF84FF48051134804F0D4F8EB
:1013C0004FF00008002EC9D14FF400610D4804F021
:1013D000CBF8BDE878414FF480510B4804F0B6B823
:1013E00014784FF4006114F00308064818BF4FF05A
:1013F000010804F0B9F84FF48051034804F0B4F840
:10140000ACE700BF00040240000802400038004082
:1014100080B485B000AF00237B600023FB73002302
:10142000BB60174BCA225A62154B53225A62144AA8
:10143000134BDB6823F0A003D360114BDB6803F090
:101440002003BB607B6801337B607B68B3F5004F92
:1014500002D0BB68002BF0D0094BDB6803F02003FF
:10146000002B02D00123FB7301E00023FB73044B2C
:10147000FF225A62FB7B18461437BD4680BC70477A
:101480000028004080B483B000AF78600C4BCA22C3
:101490005A620B4B53225A62094A094B9B6823F04C
:1014A000070393600649064B9A687B6813438B6079
:1014B000034BFF225A6200BF0C37BD4680BC704709
:1014C0000028004080B483B000AF7860084BCA2287
:1014D0005A62074B53225A62054A7B685361044B98
:1014E000FF225A6200BF0C37BD4680BC704700BF68
:1014F0000028004080B487B000AF0346FB71002392
:10150000FB6000233B610023FB751D4BCA225A621E
:101510001B4B53225A62FB79002B08D0184A184BF8
:101520009B6843F4806393600123FB751FE0144ABA
:10153000134B9B6823F480639360114BDB6803F0CB
:1015400004033B61FB680133FB60FB68B3F5005F9C
:1015500002D03B69002BF0D0094BDB6803F0040399
:10156000002B02D10023FB7501E00123FB75044B26
:10157000FF225A62FB7D18461C37BD4680BC70476F
:101580000028004080B483B000AF78600B46FB7049
:10159000194BCA225A62184B53225A62FB78002B0D
:1015A00010D01549144B9A687B6823F00403134349
:1015B0008B601149104B1A6C7B6803F004031343D2
:1015C0000B6411E00C490C4B9A687B6823F0040310
:1015D000DB4313408B600849074B1A6C7B6803F0B0
:1015E0000403DB4313400B64034BFF225A6200BF2A
:1015F0000C37BD4680BC7047002800402DE9F00F35
:101600008AB000AF00237B626A4C7A6A4FF4D063E1
:1016100003FB02F3234403F511731B78DBB24FF095
:101620000004C7E90634634C7A6A4FF4D06303FBC5
:1016300002F3234403F245231B78DBB24FF000048E
:10164000210241EA13611802D7E9063443EA000394
:1016500044EA0104C7E9063456497A6A4FF4D06374
:1016600003FB02F30B4403F246231B78DBB24FF07B
:1016700000044FEA044949EA13494FEA0348D7E90D
:10168000063443EA080344EA0904C7E90634494A30
:101690007B6A4FF4D06101FB03F3134403F2472349
:1016A0001B78DBB24FF00004260646EA13261D061F
:1016B000D7E9063443EA050344EA0604C7E90634D9
:1016C0003C4A7B6A4FF4D06101FB03F3134403F5FA
:1016D00012731B78DBB24FF000041B007B61002308
:1016E0003B61D7E90634D7E9041241EA030142EA33
:1016F00004020B461446C7E906342E4A7B6A4FF4AF
:10170000D06101FB03F3134403F249231B78DBB2DE
:101710004FF000041B02FB600023BB60D7E90634D6
:10172000D7E9021241EA030142EA04020B461446D9
:10173000C7E906341F4A7B6A4FF4D06101FB03F30B
:10174000134403F24A231B78DBB24FF000041B045E
:101750007B6000233B60D7E90634D7E9001241EAF9
:10176000030142EA04020B461446C7E90634114A53
:101770007B6A4FF4D06101FB03F3134403F24B2364
:101780001B78DBB24FF000044FEA036B4FF0000A06
:10179000D7E9063443EA0A0344EA0B04C7E90634EE
:1017A000D7E90634184621462837BD46BDE8F00F74
:1017B000704700BFD80A00202DE9F00F8AB000AFB3
:1017C00000237B626A4C7A6A4FF4D06303FB02F316
:1017D000234403F55C731B78DBB24FF00004C7E9C8
:1017E0000634634C7A6A4FF4D06303FB02F323445C
:1017F00003F271331B78DBB24FF00004210241EA9F
:1018000013611802D7E9063443EA000344EA0104ED
:10181000C7E9063456497A6A4FF4D06303FB02F3F2
:101820000B4403F272331B78DBB24FF000044FEA33
:10183000044949EA13494FEA0348D7E9063443EA21
:10184000080344EA0904C7E90634494A7B6A4FF4AD
:10185000D06101FB03F3134403F273331B78DBB253
:101860004FF00004260646EA13261D06D7E9063483
:1018700043EA050344EA0604C7E906343C4A7B6AA6
:101880004FF4D06101FB03F3134403F55D731B7840
:10189000DBB24FF000041B007B6100233B61D7E902
:1018A0000634D7E9041241EA030142EA04020B4676
:1018B0001446C7E906342E4A7B6A4FF4D06101FB17
:1018C00003F3134403F275331B78DBB24FF00004CB
:1018D0001B02FB600023BB60D7E90634D7E9021284
:1018E00041EA030142EA04020B461446C7E9063402
:1018F0001F4A7B6A4FF4D06101FB03F3134403F2E8
:1019000076331B78DBB24FF000041B047B600023AE
:101910003B60D7E90634D7E9001241EA030142EA05
:1019200004020B461446C7E90634114A7B6A4FF499
:10193000D06101FB03F3134403F277331B78DBB26E
:101940004FF000044FEA036B4FF0000AD7E906346A
:1019500043EA0A0344EA0B04C7E90634D7E906342C
:10196000184621462837BD46BDE8F00F704700BF36
:10197000D80A00202DE9F00F8AB000AF00237B6267
:101980006A4C7A6A4FF4D06303FB02F3234403F5F5
:1019900015731B78DBB24FF00004C7E90634634CC3
:1019A0007A6A4FF4D06303FB02F3234403F2552316
:1019B0001B78DBB24FF00004210241EA13611802E8
:1019C000D7E9063443EA000344EA0104C7E90634D0
:1019D00056497A6A4FF4D06303FB02F30B4403F2D7
:1019E00056231B78DBB24FF000044FEA044949EA62
:1019F00013494FEA0348D7E9063443EA080344EAA7
:101A00000904C7E90634494A7B6A4FF4D06101FBF7
:101A100003F3134403F257231B78DBB24FF00004A7
:101A2000260646EA13261D06D7E9063443EA0503CF
:101A300044EA0604C7E906343C4A7B6A4FF4D061A5
:101A400001FB03F3134403F516731B78DBB24FF06D
:101A500000041B007B6100233B61D7E90634D7E912
:101A6000041241EA030142EA04020B461446C7E9A4
:101A700006342E4A7B6A4FF4D06101FB03F3134412
:101A800003F259231B78DBB24FF000041B02FB600A
:101A90000023BB60D7E90634D7E9021241EA03010B
:101AA00042EA04020B461446C7E906341F4A7B6A21
:101AB0004FF4D06101FB03F3134403F25A231B7864
:101AC000DBB24FF000041B047B6000233B60D7E9CE
:101AD0000634D7E9001241EA030142EA04020B4648
:101AE0001446C7E90634114A7B6A4FF4D06101FB02
:101AF00003F3134403F25B231B78DBB24FF00004C3
:101B00004FEA036B4FF0000AD7E9063443EA0A03B1
:101B100044EA0B04C7E90634D7E9063418462146DF
:101B20002837BD46BDE8F00F704700BFD80A002037
:101B300080B582B000AF7860144A144B5B6823F024
:101B40007F7353601148114B5A687B6819687B6832
:101B50005B680B431343436000F02AF80B4A0B4BBE
:101B60001B6823F07E0313600848084B1A687B68E3
:101B700099687B68DB6819437B681B690B431343D7
:101B8000036000BF0837BD4680BD00BF0024004091
:101B900080B483B000AF0346FB71044AFB79136045
:101BA00000BF0C37BD4680BC704700BF00800442B8
:101BB00080B483B000AF00237B6000233B600A4BFE
:101BC0009B6803F020033B607B6801337B607B688C
:101BD000B3F5004F02D03B68002BF0D000BF0C37AC
:101BE000BD4680BC704700BF0024004080B483B075
:101BF00000AF0346FB71044AFB79136000BF0C374A
:101C0000BD4680BC704700BF1C80044280B483B0D6
:101C100000AF7860084A084B5B6823F0700353609C
:101C20000549054B5A687B6813434B6000BF0C376E
:101C3000BD4680BC704700BF0024004080B483B024
:101C400000AF7860084A084B5B6823F46073536008
:101C50000549054B5A687B6813434B6000BF0C373E
:101C6000BD4680BC704700BF0024004080B483B0F4
:101C700000AF78603960094A084B5B6823F4783319
:101C800053600648054B5A6879683B680B43134319
:101C9000436000BF0C37BD4680BC70470024004045
:101CA00080B483B000AF7860084A084B5B6823F4C7
:101CB000E05353600549054B5A687B6813434B60FA
:101CC00000BF0C37BD4680BC704700BF00240040F9
:101CD00080B400AF034B01221A6000BFBD4680BC38
:101CE000704700BF0881044280B485B000AF7860BF
:101CF0000023FB73084B9A687B681340002B02D0CB
:101D00000123FB7301E00023FB73FB7B18461437B0
:101D1000BD4680BC704700BF0024004080B400AFC7
:101D2000134A134B1B6843F4807313601049104B24
:101D30009A68104B13408B600D4A0D4B1B6823F0C3
:101D4000885323F001131360094A094B1B6823F4DD
:101D500080231360064A064B9B6823F47D0393603F
:101D6000034B0022DA6000BFBD4680BC704700BF55
:101D7000003802400CC0FF8880B485B000AF7860A6
:101D80000023FB60094B5B68FB60FB6823F4604346
:101D9000FB60FA687B681343FB60044AFB6853608E
:101DA00000BF1437BD4680BC704700BF00380240FA
:101DB00080B483B000AF0346FB71044AFB79136023
:101DC00000BF0C37BD4680BC704700BF20004742B3
:101DD00080B483B000AF0346FB71044AFB79136003
:101DE00000BF0C37BD4680BC704700BF00004742B3
:101DF00080B483B000AF0346FB71044AFB791360E3
:101E000000BF0C37BD4680BC704700BF800647420C
:101E100080B483B000AF0346FB710B46BB71134621
:101E20007B710749BA797B791343DAB2FB791343A3
:101E3000DBB20B7000BF0C37BD4680BC704700BFE3
:101E40000A38024080B483B000AF0346FB71044AF5
:101E5000FB79136000BF0C37BD4680BC704700BFE4
:101E60006000474280B485B000AF78600023FB601B
:101E7000094B9B68FB60FB6823F00303FB60FA6877
:101E80007B681343FB60044AFB68936000BF143710
:101E9000BD4680BC704700BF0038024080B400AF30
:101EA000044B9B68DBB203F00C03DBB21846BD4663
:101EB00080BC70470038024080B485B000AF7860C5
:101EC0000023FB60094B9B68FB60FB6823F0F00379
:101ED000FB60FA687B681343FB60044AFB6893600D
:101EE00000BF1437BD4680BC704700BF00380240B9
:101EF00080B485B000AF78600023FB60094B9B681D
:101F0000FB60FB6823F4E063FB60FA687B681343C3
:101F1000FB60044AFB68936000BF1437BD4680BC79
:101F2000704700BF0038024080B485B000AF7860D1
:101F30000023FB60094B9B68FB60FB6823F4605344
:101F4000FB607B68DB00FA681343FB60034AFB68B5
:101F5000936000BF1437BD4680BC70470038024014
:101F600080B489B000AF78600023FB610023BB61BF
:101F700000237B6100233B610023FB600023BB60E7
:101F80005F4B9B6803F00C03FB61FB690C2B65D86E
:101F900001A252F823F000BFCD1F00085D20000809
:101FA0005D2000085D200008ED1F00085D2000088E
:101FB0005D2000085D200008F51F00085D20000876
:101FC0005D2000085D200008FD1F00084C4B5B6889
:101FD00003F460435B0BBB60BB6801334FF400420A
:101FE00002FA03F31A467B681A6047E07B68454AA9
:101FF0001A6043E07B68444A1A603FE0404B9B68AC
:1020000003F47013BB613E4B9B6803F440037B6198
:10201000BB699B0C3D4AD35CDBB2BB617B699B0D0A
:1020200001337B61364B9B6803F480333B613B6932
:10203000002B09D1BB69334A02FB03F27B69B2FB77
:10204000F3F27B681A6019E0BB692F4A02FB03F2C6
:102050007B69B2FBF3F27B681A600FE0284B5B6888
:1020600003F460435B0BBB60BB6801334FF4004279
:1020700002FA03F31A467B681A6000BF204B9B6884
:1020800003F0F003FB61FB691B09FB61204AFB695C
:1020900013441B78DBB2FB607B681A68FB68DA408C
:1020A0007B685A60164B9B6803F4E063FB61FB6935
:1020B0001B0AFB61164AFB6913441B78DBB2FB6009
:1020C0007B685A68FB68DA407B689A600C4B9B68B7
:1020D00003F46053FB61FB69DB0AFB610C4AFB699B
:1020E00013441B78DBB2FB607B685A68FB68DA40FC
:1020F0007B68DA6000BF2437BD4680BC704700BFF4
:10210000003802400024F40000127A002C04002061
:102110003804002080B485B000AF78600023FB60F5
:102120007B6803F44033B3F5403F0FD1114B1B687C
:10213000FB60FB6823F0C043FB607B6803F0C04397
:10214000FA681343FB600B4AFB681360094A094BAA
:102150005B6B23F4403353630649064B5A6B7B6831
:1021600003F4403313434B6300BF1437BD4680BCB8
:10217000704700BF0038024080B483B000AF034610
:10218000FB71044AFB79136000BF0C37BD4680BC6D
:10219000704700BFD806474280B483B000AF786074
:1021A0000B46FB70FB78002B06D00949084BDA6917
:1021B0007B681343CB6106E00549054BDA697B6810
:1021C000DB431340CB6100BF0C37BD4680BC70477A
:1021D0000038024080B483B000AF78600B46FB70DB
:1021E000FB78002B06D00949084B1A6A7B68134319
:1021F0000B6206E00549054B1A6A7B68DB43134016
:102200000B6200BF0C37BD4680BC704700380240EF
:1022100080B483B000AF78600B46FB70FB78002B76
:1022200006D00949084B5A6A7B6813434B6206E0A3
:102230000549054B5A6A7B68DB4313404B6200BF7C
:102240000C37BD4680BC70470038024080B483B074
:1022500000AF78600B46FB70FB78002B06D0094975
:10226000084B5A697B6813434B6106E00549054BEF
:102270005A697B68DB4313404B6100BF0C37BD4696
:1022800080BC70470038024080B483B000AF7860F3
:102290000B46FB70FB78002B06D00949084B9A6966
:1022A0007B6813438B6106E00549054B9A697B689F
:1022B000DB4313408B6100BF0C37BD4680BC7047C9
:1022C0000038024080B487B000AF0346FB710023A2
:1022D000FB6000237B610023FB74FB795B09DBB2AD
:1022E000FB60FB68012B03D10E4B1B687B6102E096
:1022F0000C4B5B6B7B61FB7903F01F03FB607A691E
:10230000FB6822FA03F303F00103002B02D0012340
:10231000FB7401E00023FB74FB7C18461C37BD46B0
:1023200080BC70470038024080B483B000AF0346E1
:10233000FB71084997F907305B09FA7902F01F022F
:10234000012000FA02F241F8232000BF0C37BD46FD
:1023500080BC704700E100E080B483B000AF03466A
:10236000FB71094997F907305B09FA7902F01F02FE
:10237000012000FA02F2203341F8232000BF0C377D
:10238000BD4680BC704700BF00E100E080B582B070
:1023900000AF082000F038FA03467B607B68002B12
:1023A00002D00820FFF7D8FF7B6818460837BD46E3
:1023B00080BD00BF80B582B000AF78607B68002B25
:1023C00002D00820FFF7B0FF00BF0837BD4680BD30
:1023D00080B485B000AF786039600023FB817B68F2
:1023E0001B88FB817B68B3F1804F0BD07B681C4A54
:1023F000934207D07B681B4A934203D07B681A4AFA
:10240000934208D1FB8923F07003FB813B685A8813
:10241000FB891343FB817B68144A93420CD07B6891
:10242000134A934208D0FB8923F44073FB813B6835
:102430001A89FB891343FB817B68FA891A803B6800
:102440005A687B68DA623B681A887B681A857B6801
:1024500001229A8200BF1437BD4680BC704700BF7E
:102460000004004000080040000C00400010004044
:102470000014004080B483B000AF786039607B689E
:102480003A685A6200BF0C37BD4680BC704700BF37
:1024900080B483B000AF78607B685B6A18460C3705
:1024A000BD4680BC704700BF80B483B000AF786089
:1024B0000B46FB70FB78002B08D07B681B889BB217
:1024C00043F001039AB27B681A8007E07B681B889F
:1024D0009BB223F001039AB27B681A8000BF0C37CD
:1024E000BD4680BC704700BF80B485B000AF786047
:1024F0000023FB60094B5B68FB60FB6823F44033FF
:10250000FB607B681B68FA681343FB60034AFB6847
:10251000536000BF1437BD4680BC704700270140A0
:1025200080B483B000AF78607B689B6843F08042E2
:102530007B689A6000BF0C37BD4680BC704700BF07
:1025400080B483B000AF78607B689B6D9BB2184607
:102550000C37BD4680BC704780B485B000AF786052
:102560000B467B800023FB737B681A687B881340D3
:10257000002B02D00123FB7301E00023FB73FB7BE4
:1025800018461437BD4680BC704700BF80B487B082
:1025900000AF78600B467B800023FB7500233B6116
:1025A0000023FB607B881B0A9BB23B617B685A68F7
:1025B0007B88DBB2194601238B401340FB607B68AC
:1025C0001A683B691340002B05D0FB68002B02D032
:1025D0000123FB7501E00023FB75FB7D18461C37CA
:1025E000BD4680BC704700BF80B485B000AF786046
:1025F0000B467B800023FB737B881B0A9BB2FB731B
:10260000FB7BDA437B681A6000BF1437BD4680BC91
:10261000704700BF80B483B000AF03463960FB71E0
:1026200097F90730002B0BDA0D49FB7903F00F0304
:10263000043B3A68D2B21201D2B20B441A7609E0D6
:10264000084997F907303A68D2B21201D2B20B4466
:1026500083F8002300BF0C37BD4680BC704700BF25
:1026600000ED00E000E100E080B582B000AF7860EE
:102670007B68013BB3F1807F01D301230FE00A4A5D
:102680007B68013B53600F214FF0FF30FFF7C2FF23
:10269000054B00229A60044B07221A60002318465B
:1026A0000837BD4680BD00BF10E000E080B400AF39
:1026B000024B1B681846BD4680BC7047581100206D
:1026C00080B500AF0A4B1B680A4AA2FB03239B0993
:1026D0001846FFF7C9FF0346002B00D0FEE705218F
:1026E0004FF0FF30FFF796FF0023184680BD00BF74
:1026F00048040020D34D621080B584B000AF0121A2
:102700004FF08050FFF784FD012002F091FC012082
:10271000FFF76EFB00BF4120FFF7D4FD0346002BFF
:10272000F9D04FF40030FFF7F5FC0120FFF724FD4E
:10273000FEF76EFE4FF48010FEF73EFD4FF480135F
:102740007B6000233B7208237B720123BB723B1D1D
:102750001846FEF7BFFC03233B7300237B73002363
:10276000BB730123FB7307F10C03184602F0D6FD7F
:102770000420FEF787FE0020FEF7A4FE01214FF49F
:102780008040FEF7FFFE0120FEF7B4FE012002F0BC
:102790004FFC00BF1037BD4680BD00BF80B586B07E
:1027A00000AF04233B610223FB7507F110031946B8
:1027B000144802F013FE02210120FEF749FC042315
:1027C000BB6000233B7308237B730123BB7307F1BA
:1027D00008031846FEF77EFC4FF4407002F08CFDB3
:1027E00008233B710F237B710023BB710123FB7115
:1027F0003B1D184602F092FD002318461837BD46CF
:1028000080BD00BF0004024080B485B000AF786096
:102810000023FB730023BB60094B1A687B681340DD
:10282000BB60BB68002B02D00123FB7301E00023D7
:10283000FB73FB7B18461437BD4680BC704700BF56
:102840000004014080B588B000AF0346FB71FFF77C
:1028500065FAFB79002B5DD00120FFF7C9FA012052
:10286000FFF7B6FA00BF2120FFF72CFD0346002B2F
:10287000F9D00120FFF79CFA4FF44040FFF77CFAB3
:102880000120FEF7C3FC0020FFF7ECFA00BFFFF7C2
:1028900005FB0346002BFAD107F110031846FFF79A
:1028A0005FFB0120FEF796FC8020FFF705FB002070
:1028B000FFF73AFB0020FFF71BFB0023FB6007F14B
:1028C0000C031846FFF710FEC0220C210020FFF772
:1028D0009FFA0120FFF7B6FA00BF3920FFF7F2FC9C
:1028E0000346002BF9D001214FF48050FFF772FC12
:1028F00001214FF48040FFF78BFC01211F20FFF7DF
:102900004BFC01210120FFF765FC01212A48FFF75C
:102910007FFC4CE00120FFF75BFA0120FEF776FC1C
:102920000120FEF757FC0020FFF7C6FA0020FFF752
:10293000FBFA4FF48060FFF7DBFA0023FB6007F13E
:102940000C031846FFF7D0FDC0220C210020FFF732
:102950005FFA0120FFF776FA00BF3920FFF7B2FCDB
:102960000346002BF9D00320FFF77CFA00BFFFF7E6
:1029700095FA0346082BFAD107F110031846FFF722
:10298000EFFA01214FF48050FFF724FC01214FF4AE
:102990008040FFF73DFC01211F20FFF7FDFB0121D7
:1029A0000120FFF717FC01210348FFF731FC00234A
:1029B00018462037BD4680BD0002009080B588B023
:1029C00000AF3E4802F0A4FB0023BB814FF48273AA
:1029D000FB8100233B8200237B820023BB824FF4D8
:1029E0000073FB8210233B8300237B830723BB837D
:1029F00007F10C031946314802F0C4FB20237B6029
:102A000002233B720023BB7203237B720223FB72FF
:102A10003B1D19462A4802F0E1FC4FF480537B60CD
:102A200002233B720023BB7203237B720223FB72DF
:102A30003B1D1946224802F0D1FC4FF400637B6035
:102A400002233B7203237B720223FB723B1D194658
:102A50001B4802F0C3FC10237B6001233B7203235D
:102A60007B723B1D1946164802F0B8FC0021134842
:102A700002F0ECFB0121114802F0C8FB05222021E5
:102A80000F4802F097FD05224FF480510C4802F0E8
:102A900091FD05224FF40061094802F08BFD0522EB
:102AA0001021074802F086FD1021054802F04EFD76
:102AB000002318462037BD4680BD00BF00300140CE
:102AC0000000024080B584B000AF0346FB710121D5
:102AD0001F20FFF761FB01210120FFF77BFB4FF671
:102AE000FF73BB6003233B73C023BB6001233B73B5
:102AF00000237B7307F108031946184802F06EFCA7
:102B0000FB7983F00103DBB2002B22D04FF480531A
:102B1000BB6001233B7300237B7307F10803194655
:102B20000F4802F05BFC4FF40053BB6000233B7383
:102B300007F1080319460B4802F050FC4FF480439C
:102B4000BB6000233B7307F108031946054802F0F8
:102B500045FC002318461037BD4680BD00040240E6
:102B6000000802400000024080B582B000AF01239F
:102B70007B604FF48041064802F0CCFC0346002BFA
:102B800001D000237B607B6818460837BD4680BDB6
:102B90000000024080B582B000AF0346FB71FB79B4
:102BA000012B09D0042B0CD0002B00D00EE04021CB
:102BB000084802F0D9FC09E08021064802F0D4FC64
:102BC00004E0C021034802F0CFFC00BF00BF08377B
:102BD000BD4680BD0004024080B582B000AF034610
:102BE000FB71FB79012B09D0042B0CD0002B00D0FA
:102BF0000EE04021084802F0A9FC09E080210648C7
:102C000002F0A4FC04E0C021034802F09FFC00BFD6
:102C100000BF0837BD4680BD0004024080B582B0C9
:102C200000AF0123FB71FB791846FFF70BFEFFF79E
:102C300063FDFB791846FFF745FFFFF741FDFFF7FE
:102C4000ADFD002318460837BD4680BD80B500AFF6
:102C5000FFF7B4FE00BF80BD00B583B0E1B160F006
:102C60003F007F298DF804000DD961F07F00C9096C
:102C70008DF805008DF80610032001A9FEF7E2FA91
:102C800003B05DF804FB8DF80510022001A9FEF7E2
:102C9000D9FA03B05DF804FB60F07F008DF8040002
:102CA00001A90120FEF7CEFA03B05DF804FB00BFD6
:102CB00000B583B0E1B140F040007F298DF80400F9
:102CC0000DD961F07F00C9098DF805008DF8061057
:102CD000032001A9FEF7F0FA03B05DF804FB8DF8BC
:102CE0000510022001A9FEF7E7FA03B05DF804FB26
:102CF0008DF8040001A90120FEF7DEFA03B05DF8AB
:102D000004FB00BF00B583B089B280B201AB0422DE
:102D1000FFF7CEFF20B14FF0FF3003B05DF804FBAA
:102D20009DF807009DF806309DF80520A0F58070FD
:102D300003EB00209DF8043002EB002003EB0020A1
:102D400003B05DF804FB00BF00B583B089B280B268
:102D500001AB0222FFF7ACFF20B14FF6FF7003B0CA
:102D60005DF804FB9DF805009DF8043003EB00209E
:102D700080B203B05DF804FB30B5144683B0150A89
:102D800089B201AB022280B28DF804408DF8055063
:102D9000FFF762FF03B030BD70B5144682B04FEA52
:102DA000122E160C150E89B201AB042280B28DF8DA
:102DB00004408DF805E08DF806608DF80750FFF7A8
:102DC0004BFF02B070BD00BF2DE97041A64C00233F
:102DD000627F83B019460F2084F85E2084F8583053
:102DE000FFF790FF42050546606541D5667F002EDE
:102DF00078D06B043ED515F4801640F08E803146B5
:102E00001020FFF7A1FF994B804631460222112086
:102E1000FFF74EFF637B002B00F0BD80C8F309086D
:102E200015F00801A4F85A808F4A08D092F85C3057
:102E300003F0200303F0FF00002B00F0DF8084F894
:102E400059100026617F022384F85830DFF8188279
:102E5000002940F0A38005F4DE4232430F20FFF743
:102E60009BFFD8F87C305BB308F15400984727E00B
:102E7000420428D415F0800173D115F400325DD1DD
:102E80007B4A2A40E2B100210F20FFF785FF236A29
:102E90000022980084F86D2040F1D28000F072F991
:102EA000E90400F1A7802A0400F1CD80EB0340F192
:102EB000CE80092384F85830E36F0BB16D489847F2
:102EC00003B0BDE87081236A990047D500F05AF934
:102ED000E36F0021032284F86D1084F85820002B42
:102EE000ECD1EDE700F46063B3F5606F81D000F0E2
:102EF000CBF800F047F9236A05F0F8089B0000F1D1
:102F00009880E36F032284F8582013B104F1540031
:102F10009847280625D44546B2E700F0B5F800F0FA
:102F200031F9236A50489D005DD4C36F032280F8B5
:102F30005820002BC4D054309847C1E70F20FFF72A
:102F40002BFFE36F042284F858200BB149489847BF
:102F5000002384F86D3003B0BDE8708100F094F870
:102F6000B4E7F82200210F20FFF716FF94F859204C
:102F70003D4B4AB15A7F002183F8591022B993F88A
:102F80006D300BB100F080F8A36F012284F8582057
:102F9000002B93D194E708F07F0841E74FF0010E32
:102FA000032172460DF106030F208DF807E0FFF7AD
:102FB0007FFE9DF8061081EA410111F0800131D0B9
:102FC000216A11F0005127D0E36F0BB129489847CF
:102FD00000F052F8C0B100F057F800F0D3F8236ABF
:102FE0009C007FF56DAF4FF4807200210D20FFF73C
:102FF000C3FE65E7082384F858305DE782F859007E
:1030000082F86D0008261DE70DF107030122032158
:103010000D20FFF721FE53E74FF480720D20FFF7DC
:10302000ABFED1E705F4C04232430F20FFF7B4FEF8
:10303000C6E731464FF480720D20FFF79DFE68E72A
:1030400000F022F82AE7032384F8583034E76E01B1
:1030500003D50A2384F858302EE7AD02F3D50B23AD
:1030600084F8583028E700BFEC090020480A002007
:1030700000902724400A002008B502210F20FFF706
:1030800063FE00F0100008BD70B582B0402302ACB2
:1030900000210E2004F8013DFFF734FE0646FFF73D
:1030A00075F90546002211460E20FFF775FE2346EE
:1030B000012200210D20FFF7CFFD0A4A00210F2039
:1030C000FFF76AFE00F012F8324600210E20FFF7EB
:1030D00063FE2846FFF76EF9034B002283F86D204C
:1030E00002B070BDF8FF2724EC09002000B583B0C2
:1030F0000DF10603012203210F20FFF7D9FD9DF8F2
:10310000063083EA43031B0607D502AB012203F80E
:10311000012D03210D20FFF79FFD03B05DF804FB97
:1031200070B5044682B00DF107030122032104208B
:10313000FFF7BEFD9CB9124E9DF80740326A0DF1B3
:10314000070322F0805524F01004012203210420FB
:1031500035628DF80740FFF77FFD02B070BD084E65
:10316000224600210C20FFF707FE9DF80740326A37
:103170000DF1070342F0805544F01004E5E700BF6D
:10318000EC09002010B582B002ACE02304F8013D48
:103190002346012203213620FFF75EFD234601224C
:1031A000F024032136208DF80740FFF755FD02B0CB
:1031B00010BD00BF80B400AF00BFBD4680BC7047EB
:1031C00080B48BB000AF78607B681B687B627B68E3
:1031D0005B683B627B689B68FB617B68DB68BB610B
:1031E0007B681B697B617B685B693B617B689B6972
:1031F000FB607B68DB69BB60FEE700BF80B400AFAB
:103200001EF0040F0CBFEFF30880EFF30980816913
:10321000004A1047C1310008FEE700BF80B400AF8C
:10322000FEE700BF80B400AFFEE700BF80B400AF90
:10323000FEE700BF80B400AF00BFBD4680BC704752
:1032400080B400AF00BFBD4680BC704780B400AF03
:1032500000BFBD4680BC704780B400AF044B1B6804
:103260000133034A136000BFBD4680BC704700BFF6
:103270005811002080B500AF00F006FC4FF400505C
:10328000FDF79AFF00BF80BD80B500AF00F0FCFBEA
:103290004FF40050FDF790FF00BF80BD80B500AF38
:1032A00000F036FC0820FDF787FF00BF80BD00BF9F
:1032B00080B500AF00F02CFC0420FDF77DFF00BFBF
:1032C00080BD00BF80B500AF40F205210648FFF782
:1032D0005DF90346002B04D040F205210248FFF7B8
:1032E00083F900BF80BD00BF0024014080B500AF5E
:1032F000154A154B1B6843F4807313601249124B37
:103300009A68124B13408B600F4A0F4B1B6823F0D7
:10331000885323F0011313600B4A0B4B1B6823F4F3
:1033200080231360084A084B9B6823F47D03936055
:10333000054B0022DA6000F00DF8054B4FF00062FB
:103340009A6000BF80BD00BF003802400CC0FF88FB
:1033500000ED00E080B483B000AF00237B60002369
:103360003B60414A404B1B6843F4803313603E4B43
:103370001B6803F400333B607B6801337B603B6870
:10338000002B03D17B68B3F5A04FF0D1364B1B68FF
:1033900003F40033002B02D001233B6001E0002343
:1033A0003B603B68012B5AD1304A304B1B6843F0DD
:1033B000040313602D4A2D4B1B6843F00203136076
:1033C0002A4A2A4B1B6843F001031360264A264B06
:1033D0005B6A43F080535362254B4FF400621A60DE
:1033E00000BF234B5B6803F01003002BF9D11E4A8A
:1033F0001D4B9B6893601C4A1B4B9B6893601A4A49
:10340000194B9B689360184A174B9B6823F47D0304
:103410009360154A144B9B6843F411039360124A5E
:10342000114B1B6843F08073136000BF0E4B1B6889
:1034300003F00073002BF9D00B4A0B4B9B6823F071
:1034400003039360084A084B9B6843F003039360AF
:1034500000BF054B9B6803F00C030C2BF9D100BF98
:103460000C37BD4680BC704700380240003C02402B
:103470000070004080B584B000AF0023FB603B1DAE
:1034800000221A605A60194AFB684FF4D06101FBB0
:1034900003F3134403F26E3300221A70134AFB68DD
:1034A0004FF4D06101FB03F3134403F52C730022A6
:1034B0001A600E4AFB684FF4D06101FB03F313441A
:1034C00003F26D3300221A70FB684FF4D06202FBE6
:1034D00003F303F55C73054A1344391D08221846AB
:1034E000FDF7D6FA00BF1037BD4680BDD80A0020D0
:1034F00080B400AF074BD3F85833002B05D0054BF1
:103500000022C3F85823012300E000231846BD46DB
:1035100080BC7047D80A002080B400AF034BD3F8BA
:1035200060331846BD4680BC704700BFD80A0020F3
:1035300080B400AF034BD3F864331846BD4680BC5B
:10354000704700BFD80A002080B400AF034B93F847
:103550006C331846BD4680BC704700BFD80A0020B7
:1035600080B400AF074B93F86C33012B05D1054BAA
:10357000002283F86C23012300E000231846BD4697
:1035800080BC7047D80A002080B483B000AF054BE0
:10359000D3F830337B607B6818460C37BD4680BC5F
:1035A000704700BFD80A002090B482B000AF064B2D
:1035B00018CBC7E90034D7E900341846214608374C
:1035C000BD4690BC704700BF700A002090B482B026
:1035D00000AF064B18CBC7E90034D7E900341846D2
:1035E00021460837BD4690BC704700BF780A0020CE
:1035F00090B482B000AF064B18CBC7E90034D7E9CE
:103600000034184621460837BD4690BC704700BFBD
:10361000800A002080B582B000AF78607B685B6E66
:103620005A1C7B685A667B6800225A607B681B784C
:10363000022B06D17B6806225A700020FFF770FD2E
:103640001DE07B6801225A707B681B78012B13D127
:103650007B68DB78032B03D17B680222C3F85C23F1
:103660007B68DB78022B03D17B680122C3F85C23E3
:103670007B6802229A7002E07B6809229A70FFF749
:1036800003FD00BF0837BD4680BD00BF80B483B0D6
:1036900000AF00237B600F4A7B684FF4D06101FBD1
:1036A00003F3134403F272631B78184609497B68DD
:1036B000982202FB00F24FF4D06000FB03F31344A6
:1036C0000B4403F55E731B7818460C37BD4680BC6F
:1036D000704700BFD80A002084B080B582B000AF28
:1036E00007F1100E8EE80F0000237B603B7CFB701F
:1036F00000233B74364A7B684FF4D06101FB03F32F
:10370000134403F271631B78184631497B68982291
:1037100002FB00F24FF4D06000FB03F313440B44B0
:1037200003F55E73184607F1100198231A46FDF75A
:10373000AFF9274A7B684FF4D06101FB03F31344D0
:1037400003F271631B78184621497B68982202FBBB
:1037500000F24FF4D06000FB03F313440B4403F575
:103760005E73FA781A701A4A7B684FF4D06101FBD5
:1037700003F3134403F271631B780133D8B2144A84
:103780007B684FF4D06101FB03F3134403F27163D0
:1037900002461A700E4A7B684FF4D06101FB03F3B6
:1037A000134403F271631B78042B0AD1084A7B6827
:1037B0004FF4D06101FB03F3134403F27163002261
:1037C0001A7000BF0837BD46BDE8804004B070479E
:1037D000D80A002090B5CDB022AF0023C7F89C30A6
:1037E0000023C7F8A430FFF751FFC7F8A00015E089
:1037F000784AD7F89C3052F82330D7F89C204FF401
:10380000D06101FB02F274490A44D7F8A0101046B7
:103810009847C7F8A4000023C7F8A030D7F8A43011
:10382000002BE5D0D7F8A430022B40F087806A4AFD
:10383000D7F89C304FF4D06101FB03F313441B789D
:10384000012B2CD1644AD7F89C304FF4D06101FB96
:1038500003F3134403F524731B685F49D7F89C20D6
:103860004FF4D06000FB02F20A44243212681A447A
:103870005949D7F89C304FF4D06000FB03F30B4458
:1038800003F523731A60544AD7F89C304FF4D06183
:1038900001FB03F3134403F28B2301221A704E4AF7
:1038A000D7F89C304FF4D06101FB03F313441B782D
:1038B000032B2CD1484AD7F89C304FF4D06101FB40
:1038C00003F3134403F523731B684349D7F89C2083
:1038D0004FF4D06000FB02F20A44283212681A4406
:1038E0003D49D7F89C304FF4D06000FB03F30B4404
:1038F00003F523731A60384AD7F89C304FF4D0612F
:1039000001FB03F3134403F28B2301221A70324AA2
:10391000D7F89C304FF4D06101FB03F3134403F25A
:103920008A2300221A702C4AD7F89C304FF4D061B9
:1039300001FB03F31344043300221A60264AD7F82C
:103940009C304FF4D06101FB03F3134403F28B234B
:103950001B78012B39D1204AD7F89C304FF4D06125
:1039600001FB03F3134403F28A231B78002B2CD1B1
:10397000194AD7F89C304FF4D06101FB03F313448C
:1039800003F523731C68FEF791FE03469C421CD28C
:10399000114AD7F89C304FF4D06101FB03F3134474
:1039A00003F28B2300221A700023BB8004233B7098
:1039B00084237B70684607F1100388221946FDF7BF
:1039C00067F83B460FCBFFF787FE00231846AC375E
:1039D000BD4690BDF8110020D80A002080B483B005
:1039E00000AF7860044A7B68C2F8783600BF0C37B5
:1039F000BD4680BC704700BFD80A002080B400AF2D
:103A0000024B9B8B1846BD4680BC7047D80A0020ED
:103A100080B400AF024BDB8B1846BD4680BC7047BC
:103A2000D80A002080B483B000AF0346FB71084978
:103A300097F907305B09FA7902F01F02012000FABA
:103A400002F241F8232000BF0C37BD4680BC70470E
:103A500000E100E080B483B000AF0346FB71094988
:103A600097F907305B09FA7902F01F02012000FA8A
:103A700002F2203341F8232000BF0C37BD4680BC42
:103A8000704700BF00E100E080B500AF0120FFF704
:103A9000A5FF00BF80BD00BF80B584B000AF7860D7
:103AA0007B689BB2FB6001214FF08040FEF7FCFC7D
:103AB000F9684FF08040FEF7DDFC04E04FF08040F5
:103AC000FEF7E6FCF860FB68012BF7D800BF103763
:103AD000BD4680BD80B584B000AF01210120FEF756
:103AE00097FB0123BB801023FB803223BB600023A4
:103AF000BB813B1D19464FF08040FEF769FC012158
:103B00004FF08040FEF7D0FC00BF1037BD4680BDAF
:103B100080B500AFFFF758F90421044801F0FAFC22
:103B20000346012BF6D000BF80BD00BF0004024059
:103B300080B588B000AF0023FB604FF470133B6189
:103B40000C237B614023BB610023FB6107F10C0365
:103B50001846FDF7EDFF0120FEF748F84FF48050BE
:103B6000FEF79EF80020FEF769F84020FEF74EF8B9
:103B7000FEF71EF80120FEF70BF800BF0120FEF74C
:103B8000B3F80346002BF9D000BF1020FEF7ACF8C5
:103B90000346002BF9D04FF480410020FEF766F871
:103BA00001F01AF948F20E737B6002233B723B1D51
:103BB0001946534801F012FC0B220121504801F034
:103BC000F9FC0B2202214E4801F0F4FC0B220321E8
:103BD0004B4801F0EFFC0B220821494801F0EAFCB8
:103BE0000B220921464801F0E5FC0B220A2144483A
:103BF00001F0E0FC0B220F21414801F0DBFC4FF605
:103C000038737B6002233B723B1D19463D4801F02F
:103C1000E5FB0B2203213B4801F0CCFC0B220421E5
:103C2000384801F0C7FC0B220521364801F0C2FCE0
:103C30000B220821334801F0BDFC0B220921314839
:103C400001F0B8FC0B220A212E4801F0B3FC0B2234
:103C50000B212C4801F0AEFC0B220C21294801F06D
:103C6000A9FC0B220D21274801F0A4FC0B220E21F8
:103C7000244801F09FFC0B220F21224801F09AFCFE
:103C800040F6CF737B6002233B723B1D19461E48F2
:103C900001F0A4FB0B2200211B4801F08BFC0B223E
:103CA0000121194801F086FC0B220221164801F07F
:103CB00081FC0B220321144801F07CFC0B2206211D
:103CC000114801F077FC0B2207210F4801F072FC2C
:103CD0000B2208210C4801F06DFC0B2209210A4837
:103CE00001F068FC0B220A21074801F063FC0B225B
:103CF0000B21054801F05EFC00BF2037BD4680BDAA
:103D000000000240000402400008024000000000E1
:103D100090B587B000AF0346FB710023FB82002300
:103D20003B614FF000034FF00004C7E902341C4828
:103D3000FEF7F6FB00BF02211948FEF70DFC034613
:103D4000002BF8D01648FEF7FBFB0346FB82FB8AEC
:103D500040F2263202FB03F33B613869FCF760FB5B
:103D60004FF000020F4BFCF7D1FB03460C46184600
:103D7000214609A3D3E90023FCF7F2FC03460C46D5
:103D8000C7E90234D7E90234184621461C37BD463C
:103D900090BD00BFAFF300800000000000C8A94044
:103DA0000024014000003E4080B500AF4FF4805039
:103DB00001F04EF900BF102001F090F90346002BEE
:103DC000F9D1012001F062F900BF202001F086F94D
:103DD0000346002BF9D000BF80BD00BF90B5B1B045
:103DE00006AF0023C7F8A4300123C7F89C304FF07A
:103DF00000034FF00004C7E924344FF000034FF0F4
:103E00000004C7E922340420FEF7C4FEFEF706FFD3
:103E1000FEF71CFFFFF75EFEFFF78AFE642200211B
:103E20008048FDF751F810227F497E48FCF730FEAC
:103E3000012201217B4800F0F3FF10227B497948E1
:103E4000FCF726FE7A4B20221A700820FFF702FEAC
:103E5000002387F887303B46642220211846FDF76F
:103E600033F83B460F2273491846FCF711FE042035
:103E7000FEF790FE3B4601220121184600F0D0FFDC
:103E80006D4B1B68012B19D11E23C7F8A4300CE021
:103E9000D7F8A43003F00103002B03D00420FEF771
:103EA00079FE02E00420FEF797FED7F8A4305A1EF0
:103EB000C7F8A420002BEBD1FFF776FF5E4B1B6801
:103EC000022B18D11E23C7F8A4300CE0D7F8A43079
:103ED00003F00103002B03D00420FEF75BFE02E099
:103EE0000420FEF779FED7F8A4305A1EC7F8A420A4
:103EF000002BEBD10AE01E23C7F8A43000BFD7F88F
:103F0000A4305A1EC7F8A420002BF8D10023C7F80C
:103F1000A4300420FEF73EFE022387F8873000F02D
:103F20005BFF3B46642220211846FCF7CDFF404B47
:103F30001B7803F00803002B03D03F4B02221A60CA
:103F400002E03D4B01221A603B4B1B68012B1DD147
:103F50003B4602330C2239491846FCF799FD3B4693
:103F600001220121184600F05BFFFDF747FB0346E5
:103F70000C4638461A462346314901F079FB3B4648
:103F800001220121184600F04BFF19E03B460233A5
:103F90000C222C491846FCF77BFD3B4601220121EF
:103FA000184600F03DFF3B4602330C2226491846D6
:103FB000FCF76EFD3B4601220121184600F030FF60
:103FC000022387F8873000F007FF0820FFF72AFD5B
:103FD0003B46642220211846FCF776FF642220210C
:103FE0001A48FCF771FFFFF7F5FB194B93F873368E
:103FF000012B38D1FEF75AFB0246154BD3F8743625
:10400000D31A134A926C93422DD9114B002283F894
:104010008822094B1B68012B1CD10D48FFF7FAFAC7
:104020001DE000BF00120020249300083893000810
:10403000880A00204C9300084C0400205C93000880
:104040006C930008749300088493000864120020A5
:10405000D80A0020FFF718F8B34B06225A70B24B6B
:10406000002283F87326FFF743FA0346002B00F083
:10407000D6800023C7F88030AC4B01221A60FFF7CE
:1040800093FAC7E92401FFF7B3FAC7E92201A84B65
:104090001B68022B10D1FB6F013BFB67FB6F002BF2
:1040A0000AD10A20FFF734FE03460C46A14AC2E9B2
:1040B00000344FF47A73FB6702233B703B461A4689
:1040C00000210120FDF734F93B46642220211846E7
:1040D000FCF7FAFE642220219748FCF7F5FE3B46E8
:1040E000581CD7E92423954901F0C2FA3B461A46E9
:1040F00001212820FDF71CF9D7E922239049914896
:1041000001F0B6FA8C4A01211020FDF711F9FFF7F2
:104110003BFAC7F88000FFF7FFF9B867FFF708FA26
:104120007867FFF76BFC03463B67FFF771FC0346BC
:10413000FB664FF00002844BD7E92401FCF7E6F957
:1041400003460C4618462146FCF77AFC0346BB663C
:10415000FFF73CFA4FF000027B4BFCF7D7F9034620
:104160000C4618462146FCF76BFC03467B66704BF9
:104170001B68012B1DD16F4B18CB1A462346D7E97C
:104180002401FCF753FC0346002B48D13846FB6E54
:1041900004933B6F0393D7F8803002937B6E0193B7
:1041A000BB6E00937B6FBA6F684901F061FAF867E4
:1041B00035E0604B18CB1A462346D7E92401FCF7BB
:1041C00035FC0346002B0CD00120FEF705FD002036
:1041D000FEF7E0FC00224FF480515D4801F0D2F977
:1041E0001DE00020FEF7F8FC0120FEF7D3FC0122C1
:1041F0004FF48071574801F0C5F93846FB6E0493BF
:104200003B6F0393D7F8803002937B6E0193BB6EB4
:1042100000937B6FBA6F504901F02AFAF867434B5D
:104220001B68002B40F03481414B1B68022B00F0CF
:10423000A180FFF795F90346002B47D002233B707E
:104240003B461A4600210120FDF772F8D7F89C3052
:10425000002B1BD00023C7F89C303B4610223F495F
:104260001846FCF715FC3B461A4601212820FDF7AD
:104270005FF83B4610223A491846FCF709FC3B46DA
:104280001A4601211020FDF753F81FE00123C7F85B
:104290009C303B460233102232491846FCF7F8FBAB
:1042A0003B461A4601212820FDF742F8FDF7A6F902
:1042B00003460C4638461A4623462B4901F0D8F9E6
:1042C0003B461A4601211020FDF732F8FFF73CF972
:1042D0000346022B40F0DC80144B01221A600223BB
:1042E0003B703B461A4600210120FDF721F83B4672
:1042F00010221E491846FCF7CBFB3B461A4601210B
:104300002820FDF715F8FDF735FB03460C46384627
:104310001A462346164901F0ABF93B461A460121DD
:104320001020FDF705F8B3E0D80A00208C0A002021
:104330004C040020900A002064120020949300088E
:10434000A49300086512002000408F40B493000839
:104350000008024000040240DC93000804940008B6
:10436000189400082C9400086C93000840940008EE
:10437000549400080120FEF72FFC0020FEF70AFCF1
:1043800000224FF48051A34801F0FCF8FFF7DCF85D
:104390000346002B53D0D7F89C300233C7F89C302B
:1043A000D7F89C309C4A934272DD02233B703B4617
:1043B0001A4600210120FCF7BBFFD7F89C3003F020
:1043C0000103002B1BD00023C7F89C303B46102272
:1043D00092491846FCF75CFB3B461A46012128200F
:1043E000FCF7A6FF3B4610228D491846FCF750FB10
:1043F0003B461A4601211020FCF79AFF48E00123B2
:10440000C7F89C303B46102286491846FCF740FB13
:104410003B461A4601212820FCF78AFFFDF7EEF8FB
:1044200003460C4638461A4623467F4901F020F9D8
:104430003B461A4601211020FCF77AFF28E0FFF7DF
:1044400083F80346022B23D102233B703B461A46D6
:1044500000210120FCF76CFF3B46102273491846EF
:10446000FCF716FB3B461A4601212820FCF760FFAB
:10447000FDF7A2F903460C4638461A4623466A4918
:1044800001F0F6F83B461A4601211020FCF750FFD8
:1044900040F6C413C7F8A030B1E0D7F8A030013B14
:1044A000C7F8A030D7F8A020614B82FB0334131962
:1044B0009911D317C91A0B465B015B1A9B00D11ADD
:1044C000002916D1D7F8A020594B82FB03341319C9
:1044D000D911D317C91A0B465B015B1ADB00D11A3D
:1044E000002906D00120FEF777FB0020FEF752FBE3
:1044F00025E0D7F8A0204E4B82FB03341319991105
:10450000D317C91A0B465B015B1A9B00D11A00290D
:1045100015D1D7F8A020464B82FB03341319D911CB
:10452000D317C91A0B465B015B1ADB00D11A0029AD
:1045300005D10020FEF750FB0120FEF72BFB0223E4
:104540003B703B461A4600210120FCF7F1FE3B463A
:10455000642220211846FCF7B7FC3B460C22354963
:104560001846FCF795FA3B461A4601212820FCF72D
:10457000DFFE3B460C2230491846FCF789FA3B46E1
:104580001A4601212820FCF7D3FED7F8A030002BD3
:1045900035D1FEF76FFF02233B703B461A460021E0
:1045A0000120FCF7C5FE3B46642220211846FCF79B
:1045B0008BFC3B460C221F491846FCF769FA3B4628
:1045C0001A4601212820FCF7B3FE3B460C221B496A
:1045D0001846FCF75DFA3B461A4601212820FCF7F5
:1045E000A7FE1423C7F8A43002E0C82000F0E6FCC0
:1045F000D7F8A4305A1EC7F8A420002BF5D1FEF737
:10460000B3FA0346012B3FF448AF00231846AC37FA
:10461000BD4690BD00080240E093040004940008E9
:104620005C940008709400086C93000840940008A3
:10463000430821848494000890940008A094000802
:1046400080B487B000AFF860B9607A607B687B6146
:10465000FB68012B09D0FB68022B06D04FF0FF331B
:1046600009E000BFBB680133BB607B695A1E7A61F9
:10467000002BF6D17B6818461C37BD4680BC7047BE
:1046800090B585B000AF7860154B1B68002B02D148
:10469000134B144A1A60124B1B68FB60EFF308833C
:1046A0001C462346BB600E4B1A687B681A44BB68E5
:1046B0009A420AD919220C490220FFF7C1FF0B4B7D
:1046C0000C221A604FF0FF3306E0054B1A687B6836
:1046D0001344034A1360FB6818461437BD4690BD67
:1046E000980A0020D4120020B0940008D0120020B4
:1046F00080B584B000AF78603960FDF7D7FFF8600F
:104700003B68002B0BD03B68FA681A603B680022BC
:104710005A603B6800229A603B680022DA60FB68BE
:1047200018461037BD4680BD80B400AF0F4A0F4B0E
:104730005B6A23F4204353620C4A0C4BDB6A23F47C
:104740002043D362094A094B5B6A09490978090386
:104750000B435362054A054BDB6A05494978090357
:104760000B43D36200BFBD4680BC704700240040AD
:10477000A00A002080B487B000AFF8607B600B46D1
:10478000FB721346BB720023FB82FB681B78392B3C
:104790000FDC302B41DA2A2B1CD02A2B04DC202BF7
:1047A00015D0252B31D040E02D2B23D02F2B25D019
:1047B0003BE0B02B25D0B02B04DC6D2B12D06E2B40
:1047C00014D032E0B52B09D0FF2B22D02DE00023EE
:1047D000FB8249E04AF2DD03FB8245E046F28403B6
:1047E000FB8241E04BF21023FB823DE042F21023BA
:1047F000FB8239E04FF42043FB8235E0C023FB828B
:1048000032E04FF46C43FB822EE04FF43343FB82E3
:104810002AE04FF6DD73FB8226E0FB681B78303B15
:10482000284A32F81330FB821EE0FB681B785A2BB3
:104830000AD8FB681B78402B06D9FB681B78413BE4
:10484000214A32F81330FB82FB681B787A2B0AD896
:10485000FB681B78602B06D9FB681B78613B1A4A02
:1048600032F81330FB8200BFFB7A002B03D0FB8AA7
:1048700043F00203FB82BB7A002B03D0FB8A43F098
:104880002003FB820C237B7500233B7511E03B7DED
:104890007A681344F98A7A7D41FA02F2D2B202F0C0
:1048A0000F02D2B21A707B7D043B7B753B7D0133D6
:1048B0003B753B7D032BEAD900BF1C37BD4680BC4E
:1048C000704700BF0C950008D894000880B584B0EC
:1048D00000AF7860084611461A460346FB700B4647
:1048E000BB7013467B7007F10C03BA78F9787868CF
:1048F000FFF740FF00BF0420FDF7F6F90346002B49
:10490000F9D17B78013B052B00F2338201A252F8EA
:1049100023F000BF2D490008D7490008B14A00081C
:10492000594B00080B4C0008AD4C0008894A894BD4
:104930005B6923F0405323F003035361854A854BA1
:10494000DB6923F0405323F00303D361814A814B99
:104950005B6A23F0405323F0030353627D4A7D4B8F
:10496000DB6A23F0405323F00303D3627948794B89
:104970005B693A7B920602F040513A7B02F00302F7
:104980000A43134343617348724BDB697A7B920697
:1049900002F040517A7B02F003020A431343C361E1
:1049A0006C486C4B5B6ABA7B920602F04051BA7B52
:1049B00002F003020A43134343626648654BDB6A15
:1049C000FA7B920602F04051FA7B02F003020A439E
:1049D0001343C362CEE15F4A5E4B5B6923F04063E1
:1049E00023F0FC0353615B4A5A4BDB6923F04063BD
:1049F00023F0FC03D361574A564B5B6A23F04063B4
:104A000023F0FC035362534A524BDB6A23F04063AA
:104A100023F0FC03D3624F484E4B5B693A7B12068E
:104A200002F040613A7B920102F0800211433A7B2E
:104A3000920002F004020A43134343614548454B88
:104A4000DB697A7B120602F040617A7B920102F008
:104A5000800211437A7B920002F004020A4313435E
:104A6000C3613C483B4B5B6ABA7B120602F0406173
:104A7000BA7B920102F080021143BA7B920002F0ED
:104A800004020A43134343623248324BDB6AFA7B27
:104A9000120602F04061FA7B920102F0800211439B
:104AA000FA7B920002F004020A431343C36261E1FD
:104AB000284A284B5B6923F003235361254A254B81
:104AC000DB6923F00323D361224A224B5B6A23F084
:104AD000032353621F4A1F4BDB6A23F00323D36275
:104AE0001C481C4B5B693A7B920502F040713A7B93
:104AF000120202F440720A43134343611548154BF6
:104B0000DB697A7B920502F040717A7B120202F433
:104B100040720A431343C3610E480E4B5B6ABA7B73
:104B2000920502F04071BA7B120202F440720A430D
:104B3000134343620748074BDB6AFA7B920502F096
:104B40004071FA7B120202F440720A431343C362BB
:104B500010E100BF002400408A4A8A4B5B6923F4BD
:104B6000401323F440635361864A864BDB6923F488
:104B7000401323F44063D361824A824B5B6A23F47F
:104B8000401323F4406353627E4A7E4BDB6A23F476
:104B9000401323F44063D3627A487A4B5B693A7BD3
:104BA000920402F440113A7B920202F440620A43FA
:104BB000134343617348734BDB697A7B920402F4BD
:104BC00040117A7B920202F440620A431343C361AC
:104BD0006C486C4B5B6ABA7B920402F44011BA7B5E
:104BE000920202F440620A43134343626548654BF4
:104BF000DB6AFA7B920402F44011FA7B920202F41F
:104C000040620A431343C362B4E05E4A5D4B5B6992
:104C100023F4432353615B4A5A4BDB6923F4432358
:104C2000D361584A574B5B6A23F441235362554A78
:104C3000544BDB6A23F44123D3625248514B5B69E6
:104C40003A7B120402F440213A7B120302F44052F0
:104C50000A43134343614B484A4BDB697A7B120496
:104C600002F440217A7B120302F440520A431343B8
:104C7000C3614448434B5B6ABA7B120402F440218F
:104C8000BA7B120302F480520A43134343623D4845
:104C90003C4BDB6AFA7B120402F44021FA7B1203DC
:104CA00002F480520A431343C36263E0354A354B32
:104CB0005B6923F470335361324A324BDB6923F46E
:104CC0007033D3612F4A2F4B5B6A23F470335362E6
:104CD0002C4A2C4BDB6A23F47033D3622948294BCE
:104CE0005B693A7BD20302F400313A7B520302F44F
:104CF000803211433A7B920392B20A4313434361D9
:104D00002048204BDB697A7BD20302F400317A7BA6
:104D1000520302F4803211437A7B920392B20A4327
:104D20001343C3611748174B5B6ABA7BD20302F483
:104D30000031BA7B520302F480321143BA7B9203F2
:104D400002F480420A43134343620E480D4BDB6A70
:104D5000FA7BD20302F40031FA7B520302F4803270
:104D60001143FA7B920302F480420A431343C36265
:104D700000E000BFFFF7D8FCFCF7AAFF00BF103728
:104D8000BD4680BD0024004080B584B000AF78608F
:104D90000123FB730BE0FB7B002200217868FFF707
:104DA00095FD7B6801337B60FB7B0133FB737B6884
:104DB0001B78002B14BF01230023DAB2FB7B072BE7
:104DC00094BF01230023DBB21340DBB2002BE2D1FE
:104DD00000BF1037BD4680BD80B582B000AF002354
:104DE000FB7100BF0420FCF77FFF0346002BF9D1C5
:104DF0000023FB7109E0094AFB7904339B0013444B
:104E000000225A60FB790133FB71FB790F2BF2D939
:104E1000FCF75EFF00BF0837BD4680BD00240040A0
:104E200080B586B000AF78600B467B8013463B8030
:104E30000023BB6007F10C0300210A461A800A46D2
:104E40009A707B68002B00F08C807B683B610023AC
:104E5000FB7305E0FB7B0133FB733B6901333B6173
:104E60003B691B78002BF5D17B683B617868FFF7C5
:104E70008BFF3B881846FEF70FFE0023FB756AE0A8
:104E80000023BB7560E0BB7D0133FA7B93FBF2F13D
:104E900002FB01F29B1A1A463B6913441B783B72D2
:104EA000BB7D0233FA7B93FBF2F102FB01F29B1A0A
:104EB0001A463B6913441B787B72BB7D0333FA7B34
:104EC00093FBF2F102FB01F29B1A1A463B69134471
:104ED0001B78BB72BB7D0433FA7B93FBF2F102FBC0
:104EE00001F29B1A1A463B6913441B78FB72BB7D87
:104EF0000533FA7B93FBF2F102FB01F29B1A1A468F
:104F00003B6913441B783B73BB7D0633FA7B93FBF1
:104F1000F2F102FB01F29B1A1A463B6913441B781B
:104F20007B73FFF759FF07F108031846FFF72CFFC3
:104F30000F4B1B78DBB2002B15D13B881846FEF7D0
:104F4000ABFDBB7D0133BB75BA7DFB7B9A429AD327
:104F5000FB7D0133FB75FB7D9BB27A889A428FD82B
:104F600002E000BF00E000BF1837BD4680BD00BFB3
:104F70009C0A0020002103E00A4B5B584350043197
:104F800009480A4B42189A42F6D3094A02E0002324
:104F900042F8043B074B9A42F9D3FEF7A7F9FEF714
:104FA0001DFF7047D897000800000020CC090020A2
:104FB000D0090020D4120020FEE7000080B584B0A4
:104FC00000AF786000F03EFBF8607B684FF47A72C7
:104FD00002FB03F3BB6000BF00F034FB0246FB683A
:104FE000D21ABB689A42F7D3002318461037BD4641
:104FF00080BD00BF80B584B000AF786000F022FBB8
:10500000F8607B68094AA2FB03239B09BB6000BFD1
:1050100000F018FB0246FB68D21ABB689A42F7D32D
:10502000002318461037BD4680BD00BFD34D621027
:1050300080B483B000AF0346FB71044AFB79136070
:1050400000BF0C37BD4680BC704700BF20000E4239
:1050500080B485B000AF78600023FB600A4B1B680A
:10506000FB60FB6823F4C053FB60FA687B68134362
:10507000FB60054AFB6823F00C03136000BF143784
:10508000BD4680BC704700BF0070004080B483B054
:1050900000AF0346FB71FB79002B0CD00E4A0E4B80
:1050A0001B6843F0010313600B4A0B4B1B6843F46E
:1050B000804313600BE0084A074B1B6823F48043CE
:1050C0001360054A044B1B6823F00103136000BF03
:1050D0000C37BD4680BC70470070004080B485B07E
:1050E00000AF78600023FB73084B5A687B6813405D
:1050F000002B02D00123FB7301E00023FB73FB7B39
:1051000018461437BD4680BC704700BF0070004091
:1051100080B582B000AF78607B68174A93420AD1AD
:1051200001214FF48050FDF791F800214FF4805099
:10513000FDF78CF81CE07B68104A93420AD10121EC
:105140004FF48040FDF7A0F800214FF48040FDF7B8
:105150009BF80DE07B680A4A934209D101214FF484
:105160000040FDF791F800214FF40040FDF78CF866
:1051700000BF0837BD4680BD003001400038004008
:10518000003C004080B485B000AF786039600023F7
:10519000FB817B681B88FB81FB8903F44153FB8106
:1051A0003B681A883B685B8813439AB23B689B88CC
:1051B00013439AB23B68DB8813439AB23B681B895E
:1051C00013439AB23B685B8913439AB23B689B894D
:1051D00013439AB23B68DB8913439AB2FB891343AA
:1051E000FB817B68FA891A807B689B8B9BB223F4D6
:1051F00000639AB27B689A833B681A8A7B681A823A
:1052000000BF1437BD4680BC704700BF80B483B078
:1052100000AF78600B46FB70FB78002B08D07B68F2
:105220001B889BB243F040039AB27B681A8007E068
:105230007B681B889BB223F040039AB27B681A807C
:1052400000BF0C37BD4680BC704700BF80B483B040
:1052500000AF78600B46FB70FB78002B08D07B68B2
:105260009B889BB243F004039AB27B689A8007E064
:105270007B689B889BB223F004039AB27B689A8078
:1052800000BF0C37BD4680BC704700BF80B483B000
:1052900000AF78607B689B899BB218460C37BD468F
:1052A00080BC704780B483B000AF78600B467B80D1
:1052B0007B687A889A8100BF0C37BD4680BC7047F6
:1052C00080B485B000AF78600B467B800023FB7311
:1052D0007B681B899AB27B8813409BB2002B02D05B
:1052E0000123FB7301E00023FB73FB7B184614379B
:1052F000BD4680BC704700BF80B483B000AF78600B
:10530000054A7B6843F0BF6343F40033D36000BFBA
:105310000C37BD4680BC704700ED00E080B485B01E
:1053200000AF78600023FB730023BB730F237B73F4
:105330007B68DB78002B38D0264BDB68DB4303F43B
:10534000E0631B0AFB73FB7BC3F10403BB737A7B33
:10535000FB7B42FA03F37B737B685B781A46BB7B6B
:1053600002FA03F3FB737B689A787B7B1340DAB213
:10537000FB7B1343FB73FB7B1B01FB73164A7B68B0
:105380001B781344FA7B83F80023134A7B681B784D
:105390005B09DBB218467B681B7803F01F03012111
:1053A00001FA03F342F820300FE00B497B681B78C9
:1053B0005B09DBB218467B681B7803F01F030122F0
:1053C0009A4000F1200341F8232000BF1437BD4666
:1053D00080BC704700ED00E000E100E080B487B0E1
:1053E00000AF7860396000237B6100233B610023BC
:1053F000FB600023BB6000237B6181E001227B69AD
:1054000002FA03F33B613B681A683B691340FB6097
:10541000FA683B699A4270D17B681B68BB607B6904
:105420005B00032202FA03F3DB43BA681340BB605C
:105430003B681B791A467B695B0002FA03F3BA6882
:105440001343BB607B68BA681A603B681B79012B09
:1054500003D03B681B79022B35D17B689B68BB600E
:105460007B695B00032202FA03F3DB43BA68134053
:10547000BB603B685B791A467B695B0002FA03F309
:10548000BA681343BB607B68BA689A607B689B8884
:105490009BB2BB607B699BB21A4601239340DB43FE
:1054A000BA681340BB603B689B791A467B699BB224
:1054B00002FA03F39BB21A46BB681343BB60BB6896
:1054C0009AB27B689A807B68DB68BB607B699BB221
:1054D0005B00032202FA03F3DB43BA681340BB60AC
:1054E0003B68DB791A467B695B0002FA03F3BA6812
:1054F0001343BB607B68BA68DA607B6901337B6108
:105500007B690F2B7FF67AAF00BF1C37BD4680BC8E
:10551000704700BF80B485B000AF78600B467B80D9
:105520000023FB737B681B8A9AB27B8813409BB273
:10553000002B02D00123FB7301E00023FB73FB7BF4
:1055400018461437BD4680BC704700BF80B483B096
:1055500000AF78600B467B807B687A881A8300BF37
:105560000C37BD4680BC704780B483B000AF786014
:105570000B467B807B687A885A8300BF0C37BD4618
:1055800080BC704780B483B000AF78600B467B80EE
:1055900013467B707B78002B03D07B687A881A8354
:1055A00002E07B687A885A8300BF0C37BD4680BC16
:1055B000704700BF80B485B000AF78600B467B8039
:1055C00013467B700023FB600023BB607A787B88E6
:1055D00003F007039B0002FA03F3FB607B88DB0800
:1055E0009BB218467B88DB089BB21A467B68083260
:1055F00053F822207B8803F007039B000F2101FA58
:1056000003F3DB4302EA03017B6800F1080243F87D
:1056100022107B88DB089BB21A467B68083253F85D
:105620002220FB681343BB607B88DB089BB21A46D1
:105630007B680832B96843F8221000BF1437BD46B2
:1056400080BC704700B5094B85B018686946FFF704
:105650004FF8431C06D09DE80900029A1844039BAA
:105660001044184405B05DF804FB00BF2804002076
:105670000EB40146F0B54FF6FF779CB021AC54F85C
:10568000042B0D4823466FF00045029106914FF41C
:10569000027602A900680194ADF81670ADF81460A6
:1056A0000495079500F038F8029B00221A701CB090
:1056B000BDE8F04003B070472804002020F003014B
:1056C00010F00300C0F1000051F8043B00F1040C9D
:1056D0004FEACC0C6FF000021CBF22FA0CF213430D
:1056E0004FF0010C4CEA0C2C4CEA0C4CA3EB0C02D6
:1056F00022EA030212EACC1204BF51F8043B043040
:10570000F4D0C2F1000102EA0102B2FA82F2C2F15F
:105710001F0200EBD20070472DE9F04FC1B00C46DC
:10572000099115460E930A9002F09AFC03681846F8
:105730001793FFF7C3FFA38916901E0603D52369AD
:10574000002B01F05C8100231A46A8460DF1C00928
:10575000DFF860A4129319930B9325932493CDF84B
:105760008C901492159298F800304446EBB1252B9A
:1057700002D11AE0252B03D014F8013F002BF9D1F8
:10578000C8EB04058DB1249B259A01332A44072BCD
:10579000C9F80080C9F804502592249300F332839D
:1057A00009F108090B9B2B440B932378002B00F085
:1057B000EA814FF0FF3B5D4600231A468DF86F30BB
:1057C00019460C930793637804F1010808F1010866
:1057D000A3F12000582800F24586DFE810F0F3031B
:1057E00043064306FC0343064306430643064306BB
:1057F00043065900040443066600D0034306EC0345
:10580000BC05BC05BC05BC05BC05BC05BC05BC0590
:10581000BC054306430643064306430643064306C8
:10582000430643064306E205F7044306F70443062E
:105830004306430643064205430643064A0543061C
:105840004306430643064306740543064306CD0557
:105850004306430643064306430643064306430600
:10586000430643061D060E06F704F704F704150663
:105870000E0643064306A3044306A805AE046D00C6
:105880000A04430612044306350443064306700423
:105890000E9C236818460C932346002803F104034A
:1058A0000E9306DA0C9B5B420C93079B43F00403B8
:1058B000079398F8003089E7AB460E9A00270798BF
:1058C00030217823BB4514688DF8701002F1040272
:1058D0004FF000058DF871308DF86F7040F00201C7
:1058E000C0F23D8620F0800141F00201079154EAA8
:1058F00005010E921193AD4800F0318130AE2309BD
:1059000043EA0573290904F00F020D461C46835C27
:1059100006F8013D54EA0503F1D130AB9B1B0D9312
:105920000D9B5B45B8BF5B4608930023139317B1EB
:10593000089B01330893079B13F002030F9302D0D7
:10594000089B02330893079B13F08403109340F0E5
:1059500018810C9B089A9D1A002D40F31281102D7E
:105960002599249A924F27DD189648461024B94667
:10597000099E2F460A9D04E0103F102F00F10800F9
:1059800016DD01328A4B1031072A2591249280E8D6
:105990001800F1DD23AA3146284603F0DBFB00287E
:1059A00040F0F880103F102F30A82599249AE8DCA9
:1059B0003D464F468146189E01326C18072A2594B1
:1059C0002492C9F80070C9F8045000F3D0809DF803
:1059D0006F7009F1080977B1249B013401330DF18F
:1059E0006F010122072B2594249389E8060000F318
:1059F000208209F108090F9B6BB1249B023401330B
:105A00001CA90222072B2594249389E8060000F3A1
:105A10001C8209F10809109B802B00F02C810D9B42
:105A2000C3EB0B07002F33DD624A102F249B0F922C
:105A300022DD22464FF0100B0A9D099C04E0103F26
:105A4000102F09F1080916DD01331032072B2592BA
:105A5000249389E8000CF2DD23AA2146284603F0AE
:105A600079FB002840F09680103F102F0DF1C009FF
:105A7000259A249BE8DC144601330F9A3C44072BFB
:105A80002594249389E8840000F3C78109F108096B
:105A9000079BDA0500F19080249B0D9901330C449B
:105AA000072B2594C9F80060C9F80410249300F36B
:105AB000E28109F10809079B590736D50C9B089A22
:105AC0009D1A002D31DD102D249B394F22DD2246F9
:105AD0001026DDF828B0099C04E0103D102D09F1D6
